:07329200440BE10000000005
:10699F0043BA8078FBE6FFAD9FC3ED9FFFE4940001
:1069AF00FE7CD27DF0121914E42FFFEE3436FEED8B
:1069BF00346EFDEC3401FC9007D41218539007D4B9
:1069CF00E0FCA3E0FDA3E0FEA3E0FFC00790FE0103
:1069DF00E0FBE4FAF9F8D0071216639007D4121807
:1069EF00537FC07EF67D577C009007D4E0F8A3E07C
:1069FF00F9A3E0FAA3E0FBC312171950097F007E39
:106A0F00607D547C00227FC07E267D827C009007B3
:106A1F00D4E0F8A3E0F9A3E0FAA3E0FBC31217193F
:106A2F0050097F807E8D7D5B7C00227F807EED7D97
:106A3F00AF7C009007D4E0F8A3E0F9A3E0FAA3E05D
:106A4F00FBC312171950097F007EC07DA87C00225E
:106A5F007F807E2D7DE87C009007D4E0F8A3E0F9DD
:106A6F00A3E0FAA3E0FBC312171950097F007E1BA6
:106A7F007DB77C00227F807E367D257C019007D4F8
:106A8F00E0F8A3E0F9A3E0FAA3E0FBC31217195053
:106A9F00097F007E407D197C01227F807E567D41DB
:106AAF007C019007D4E0F8A3E0F9A3E0FAA3E0FBA0
:106ABF00C312171950097F007E2D7D317C01227F73
:106ACF00007EDB7D5F7C019007D4E0F8A3E0F9A3A3
:106ADF00E0FAA3E0FBC312171950097F007E807DF7
:106AEF00517C01227F607E197D857C019007D4E067
:106AFF00F8A3E0F9A3E0FAA3E0FBC31217195009BA
:106B0F007F007E367D6E7C01227F207EE07DB27C11
:106B1F00019007D4E0F8A3E0F9A3E0FAA3E0FBC3E8
:106B2F0012171950097FC07EFC7D9B7C01227FE0EC
:106B3F007EA67DE07C019007D4E0F8A3E0F9A3E006
:106B4F00FAA3E0FBC312171950097F807EC37DC9DA
:106B5F007C01227F607E2B7DFF7C019007D4E0F8C3
:106B6F00A3E0F9A3E0FAA3E0FBC312171950097FC2
:106B7F00007E407DFA7C01227FC07E0E7D167C0256
:016B8F0022E3
:109C810012699F900BE1121853E4F594F593F59244
:109C9100F591F596F595F5B2F5B1F5B4F5B3F5CACB
:109CA100F5C9F5CCF5CBF5E2F5E1F5D8F5D9F5DE59
:109CB100F58EF598F59AF5ACF584F5A2F5BAF5AF00
:109CC100F589F5E9F5F912AA379007DB12185F005B
:109CD10001C2009007DF7402F07B01E4FDFF026D19
:019CE1004240
:10AF7E00900C14EFF0FDE4FF129DB2900C14E0FF64
:01AF8E0022A0
:03005600C2AF2214
:03008600D2AF22D4
:108ABA00900B37EFF014601E14602F1460402403EB
:108ACA007051E4FD7F1312559FE4FD7F1412559FE8
:108ADA00E4FD7F15803AE4FD7F2312559FE4FD7F74
:108AEA002412559FE4FD7F258026E4FD7F771255E9
:108AFA009FE4FD7F7612559FE4FD7F758012E4FDA9
:108B0A007F3412559FE4FD7F3312559FE4FD7F3277
:108B1A0012559F53A2F3900B37E014600A14600CAD
:108B2A0014600E2403800D43A204800843A2088027
:108B3A000343A20C53CEF3900B3BE024FE600C14CB
:108B4A00600E2402700D43CE04800843CE088003D1
:108B5A0043CE0C900B3DE042CE900B3CE0700643B6
:098B6A00CE8043CE1043CE402220
:0D0006008FCFE5CD30E7FB75CDC0AFCF2229
:10851600900BE5EFF014603914605F147003028568
:10852600A9240360030285D3E4FD7F1312559FE45B
:10853600FD7F1412559FE4FD7F1512559F7D017F27
:1085460013129E57E4FD7F14129E577D017F1580FE
:1085560079E4FD7F2312559FE4FD7F2412559FE4A5
:10856600FD7F2512559F7D017F23129E57E4FD7FD7
:1085760024129E577D017F258050E4FD7F7712559A
:108586009FE4FD7F7612559FE4FD7F7512559F7D12
:10859600017F77129E57E4FD7F76129E577D017FFD
:1085A600758027E4FD7F3412559FE4FD7F33125515
:1085B6009FE4FD7F3212559F7D017F34129E57E462
:1085C600FD7F33129E577D017F32129E5753A2F3D1
:1085D600900BE5E014600914600A14600B24032272
:0C85E60043A2042243A2082243A20C225C
:10ADB60053CEF7EF24FE600B14600C2402700B4395
:0BADC600CE042243CE082243CE0C2214
:10AEE800EF1FAA0670011E4A60087D091DED60F07B
:02AEF80080FADE
:01AEFA002235
:04A7A40090FE81F0B2
:10A7A800E4900C06F0A3F0FC90FE82E020E61E7F09
:10A7B800017E0012AEE8900C06E475F00112151344
:10A7C800FEC3E5F0941EEE940040DD7C0190FE820D
:06A7D800E054BFF0AF04E5
:01A7DE002258
:0EAEC000EFF0A3EDF0A3EBF0A3EAF0A3E9F0AE
:05AECE00740112A7A4AD
:01AED300225C
:04AFD000E025E0FF99
:0AAFD40090FE86EFF0740212A7A4AD
:01AFDE002250
:09B0360090FE817403F012A7A83A
:01B03F0022EE
:0FAFDF0090FE817404F012A7A890FE87E0FF2275
:0FACED00900B63E0FBA3E0FAA3E0F9EF12142C45
:0EACFC0090FE82E4F090FE817405F012A7A88D
:01AD0A002226
:0FAFEE0090FE827401F090FE817405F002A7A816
:09B0400090FE817406F012A7A82D
:01B0490022E4
:10A1790043BA8053BACFEF14600A14600C14600E0E
:10A189002403800D43BA10800843BA20800343BAE0
:10A199003090FE80E04440F0E04480F0C083C0820B
:10A1A900E0FB900B41A3A3A3E0FFEB4FD082D08348
:0AA1B900F090FE82E4F053BA7F221A
:109DFE00900C15EFF0A90512AECEEF60037F012295
:109E0E00900C1512AFD0EF60037F012212B036EF27
:109E1E0060037F0122AF0112AFD4EF60037F0122F6
:109E2E0012B036EF60037F0122AF0312AFD4EF60A2
:109E3E00037F012212B036EF60037F012212B04081
:099E4E00EF60037F01227F002276
:109A7400900BCD12AEC0EF60037F0122900BCD128C
:109A8400AFD0EF60037F012212B036EF60037F0195
:109A940022900BCEE0FF12AFD4EF60037F012212BD
:109AA400B036EF60037F0122900BCDE025E0440146
:109AB400FF12AFD4EF60037F012212B036EF6003D0
:109AC4007F012212AFDF900BCF12ACF0EF60037F67
:0E9AD400012212B040EF60037F01227F0022CA
:10939B00900B6112AEC0EF60037F0122900B611244
:1093AB00AFD0EF60037F012212B036EF60037F0175
:1093BB0022900B62E0FF12AFD4EF60037F01221209
:1093CB00B036EF60037F0122900B61E025E0440192
:1093DB00FF12AFD4EF60037F012212B036EF6003B0
:1093EB007F0122900B66E014F0601812AFDF12AC15
:1093FB00EDEF60037F0122900B64E475F001121412
:10940B00FD80E012AFDF12ACEDEF60037F012212A3
:0B941B00B040EF60037F01227F0022C1
:10005E0043BA8053BACFEF14600A14600C14600ECA
:10006E002403800D43BA10800843BA20800343BA9C
:05007E003053BA7F229F
:0B6D42009007D8EFF0A3EDF0A3EBF0FA
:106D4D00A3E0F8A3E0F9A3E0FAA3E0FB900BE1E0E8
:106D5D00FCA3E0FDA3E0FEA3E0FF121663E47B04B9
:106D6D00FAF9F8121663C3E49FFFE49EAD07FC9099
:106D7D0007D8E0147003026E0E147003026E4914EE
:106D8D007003026E9624036003026EE89007DFE045
:106D9D00FB640170144398508D8BECF58D438E4040
:106DAD00D28EE490076FF0800FEBB4020B43985036
:106DBD008DD7ECF5D6438E1553A23F9007D9E0FF42
:106DCD007007A3E0B401028030EFB4020C9007DA33
:106DDD00E0B4030543A24080209007D9E0B4040A33
:106DED00A3E0B4050543A280800F9007D9E0B40657
:106DFD0008A3E0B4070343A2C0E490076FF0D2AC40
:106E0D00229007DFE0B4020B439A108DD7ECF5D634
:106E1D00438E1453BAFE9007D9E0FFB40807A3E0E0
:106E2D00B40902800EEFB40A0A9007DAE0B40B033E
:106E3D0043BA0143AF01E4900770F0229007DFE001
:106E4D00FBB4020D439A108DD7ECF5D6438E14800A
:106E5D000FEBB4030B43AC508DD5ECF5D443D10AF5
:106E6D0053BAFD9007D9E0FFB40C07A3E0B40D02AF
:106E7D00800EEFB40E0A9007DAE0B40F0343BA02A6
:106E8D0043AF08E4900771F0229007DFE0FBB402F6
:106E9D000D4384108DD7ECF5D6438E14800FEBB4D3
:106EAD00040B4384508DD3ECF5D243D1A053BAFBE0
:106EBD009007D9E0FFB41007A3E0B411028014EFDE
:106ECD00B412109007DAE0B41309E4F5CA75C904D9
:0B6EDD0043BA0443AF10E4900772F0CA
:016EE8002287
:0F9DA300A3E475F001121513A9F0FA1213E6FDEF
:109DB200EF1460191460251460312403703D90077C
:109DC2006FE070FA90076F7401F08D99229007701E
:109DD200E070FA9007707401F08D9B22900771E099
:109DE20070FA9007717401F08DAD22900772E070E5
:0C9DF200FA9007727401F0AF058F852213
:10AA8900900B68EBF0A3EAF0A3E9F0AE07900B6B2B
:10AA990074FFF5F012151345F0600CAF06900B68C2
:08AAA900E0FB129DA380E622F0
:10AAB100900BF1EBF0A3EAF0A3E9F0AE07900BF1F4
:10AAC100E0FBA3E0FAA3E0F91213E6600AAF0690F7
:08AAD1000BF1129DA380E622A7
:10A4080043BC80EF131313541FFEBE0118EF54070B
:10A41800FC7401A804088002C333D8FCFCF45294ED
:10A42800EC42938019EE7016EF5407FE7401A806EB
:10A43800088002C333D8FCFEF45292EE4291ED54E8
:07A448000F42DE43DE20227B
:02A98C00A9051B
:10A98E0053BCF0EF42BC43BC40E5BC30E5FB53BCCE
:10A99E00DFAFBDEFFEADBEEDFFAD01A80508800532
:08A9AE00CEC313CE13D8F9FF4C
:01A9B600227E
:10A56300EF14601814602014602614602C24047007
:10A5730030E4F58AF58C438904D28C22E4F58BF51B
:10A583008D438940D28E22E4F5D7F5D6438E182227
:10A59300E4F5D5F5D443D10C22E4F5D3F5D243D178
:02A5A300C022D4
:10A44F00EF14601714601E14602514602C24047020
:10A45F0030AF8CEFFCAF8AEFFD8026AF8DEFFCAFF6
:10A46F008BEFFD801CAFD6EFFCAFD7EFFD8012AFA7
:10A47F00D4EFFCAFD5EFFD8008AFD2EFFCAFD3EF39
:05A48F00FDAF05AE0465
:01A4940022A5
:10A20D00EF14601714601E1460271460302404705E
:10A21D0037C28CE4F58CF58AD28C22C28EE4F58D92
:10A22D00F58BD28E22538EEFE4F5D6F5D7438E10F3
:10A23D002253D1F7E4F5D4F5D543D1082253D17F7C
:09A24D00E4F5D2F5D343D18022DF
:059538009007D8EFF0E0
:10953D007E037FE81214727C007D0C121460AB0761
:10954D00AA06E4F9F8900BE1E0FCA3E0FDA3E0FE30
:10955D00A3E0FF121663C3E49FFFE49EFE9007D8BD
:10956D00E0FD700A8F8AEEF58CD28CD2A922EDB473
:10957D00010A8F8BEEF58DD28ED2AB229007D8E0FB
:10958D00FDB4020C8FD7EEF5D6438E1043AF0422F7
:10959D00EDB4030C8FD5EEF5D443D10843AF2022A3
:1095AD009007D8E0B4040B8FD3EEF5D243D18043AE
:0295BD00AF40BD
:0195BF002289
:10A8C400EF5403FE70089007E27420F08014BE0178
:10A8D400089007E27410F08009BE02069007E27443
:10A8E40060F09007E2E0FEEFC4540FFFEE4FFFF07C
:05A8F4007D0102559FEB
:057CCF009007D8EFF062
:107CD400E49007E1F012A8C443BA809007D8E0FF0B
:107CE40054F02404FDE434FF8D82F583E054E7F07E
:107CF400E0FEEF540333333354F8FFEE4FF09007B4
:107D0400D9E0F8A3E0F9A3E0FAA3E0FB900BE1E0EB
:107D1400FCA3E0FDA3E0FEA3E0FF121663780F12BC
:107D2400172A9007E1EFF09007D9E0F8A3E0F9A350
:107D3400E0FAA3E0FB900BE1E0FCA3E0FDA3E0FE8E
:107D4400A3E0FF121663C006C0079007E1E0240118
:107D5400FFE433AB07FAE4F9F8D007D00612166350
:107D64009007DFEEF0A3EFF09007DDE0FCA3E0FD69
:107D7400E41211C77B007A40791C78461210A7C020
:107D840004C005C006C0079007DFE0FCA3E0FDE4E3
:107D94001211C7D003D002D001D000120F9E1212CC
:107DA400009007E1E090FFF2F09007DFE0FDA3E030
:107DB40090FFF0CDF0A3EDF09007D8E054F0FD7CF7
:107DC400002400FBEC34FF8B82F583EEF0A3EFF08C
:107DD400ED2404FFEC34FF8F82F583E04480F053FC
:057DE400BA7F75FE806E
:017DE9002277
:059EAF0090077CEFF0BC
:109EB40043BA80AE04AF05E41211C77B007A40793F
:109EC4001C78461210A7C004C005C006C00790FF46
:109ED400F0E0FCA3E0FDE41211C7D003D002D001EE
:109EE400D000120F9E12120090077CE054F0240060
:109EF400FDE434FF8D82F583EEF0A3EFF053BA7FD7
:019F0400223A
:06964800900BD212185332
:10964E00E4900BD6F043BA80900BD2E0F8A3E0F989
:10965E00A3E0FAA3E0FB900BE1E0FCA3E0FDA3E0A6
:10966E00FEA3E0FF121663780F12172A900BD6EFA7
:10967E00F0900BD2E0F8A3E0F9A3E0FAA3E0FB90A0
:10968E000BE1E0FCA3E0FDA3E0FEA3E0FF121663F6
:10969E00C006C007900BD6E02401FFE433AB07FAF7
:1096AE00E4F9F8D007D006121663900BD6E090FFBF
:0D96BE00F2F090FFF0EEF0A3EFF053BA7F52
:0196CB00227C
:10329900480A630000000000000000480A5B0000C3
:0632A9000000000000001F
:109D4300E4F5D875D906EF64017054EDB40A0050F8
:109D53004E909D5BF8282873029D79029D7D029D9C
:109D630081029D85029D89029D8D029D91029D9593
:109D7300029D99029D9FE4F5DA2275DA422275DA93
:109D8300632275DA532275DA732275DA202275DAC3
:109D9300102275DA302275DA49D2DE2275DA4C22C6
:10AF8F00EFB40108AFFAEFFCAFEAEFFDAF05AE0487
:01AF9F00228F
:0AB04A00EFB40105E4F5F9F5E92281
:05794800900BF4EFF0CC
:10794D00C2DEAFF9EFFFABE9EBA3CFF0A3EFF09001
:10795D000BF4E070617E037FE81214727C007D0CE5
:10796D00121460AB07AA06E4F9F8900BE1E0FCA352
:10797D00E0FDA3E0FEA3E0FF121663AC06AD079099
:10798D000A5BECF0A3EDF075DA4985E9EA85F9FAC1
:10799D00900A5BE0FEA3E0FF900A64E02FFF900ADF
:1079AD0063E03EFE900BF6E02FFF900BF5E03E906E
:1079BD000A63F0A3EFF0900BF4E0640170617E03B5
:1079CD007FE81214727C007D0C121460AB07AA06BE
:1079DD00E4F9F8900BE1E0FCA3E0FDA3E0FEA3E0E9
:1079ED00FF121663AC06AD07900A5DECF0A3EDF047
:1079FD0075DB4985E9EB85F9FB900A5DE0FEA3E0B7
:107A0D00FF900A66E02FFF900A65E03EFE900BF6B0
:107A1D00E02FFF900BF5E03E900A65F0A3EFF0909C
:107A2D000BF4E0640270557E037FE81214727C0043
:107A3D007D0C121460AB07AA06E4F9F8900BE1E097
:107A4D00FCA3E0FDA3E0FEA3E0FF121663900A5F26
:107A5D00EEF0A3EFF075DC4985E9EC85F9FC900AB1
:107A6D0068E02FFF900A67E03EFE900BF6E02FFFD7
:0E7A7D00900BF5E03E900A67F0A3EFF0D2DE2A
:017A8B0022D8
:1091EF00AD07ED7020900A63E0FEA3E0F5EAEEF51F
:1091FF00FA900A5BE0FEA3E0FF900A64E02FF09084
:10920F000A63E03EF0EDB40120900A65E0FEA3E0B2
:10921F00F5EBEEF5FB900A5DE0FEA3E0FF900A662A
:10922F00E02FF0900A65E03EF0EDB40220900A675F
:10923F00E0FEA3E0F5ECEEF5FC900A5FE0FEA3E0A4
:10924F00FF900A68E02FF0900A67E03EF0EDB4035C
:10925F0020900A69E0FEA3E0F5EDEEF5FD900A61BE
:10926F00E0FEA3E0FF900A6AE02FF0900A69E03E6B
:02927F00F022DB
:10A9B700EF7007ED24FF9288D2A8EFB40107ED24CA
:10A9C700FF928AD2AAEFB40203438F10EFB40303B6
:0BA9D700438F20EFB40403438F4022A5
:0532AF00420C080000C4
:10AA3700E47BE07A2EF9F8900BE1E0FCA3E0FDA3BC
:10AA4700E0FEA3E0FF121663900C08EEF0A3EFF010
:09AA570075DD48E4F5D9D2DE22D8
:10AD0B00AFF9EFFEADE9EDFF900C09E02FFF900CD2
:0CAD1B0008E03E8FEDF5FD30DBFDC2DBF3
:01AD27002209
:10AED400AB07AA06EB1BAE0270011A4E600512AD59
:04AEE4000B80F122CC
:109E5700EDB40126EFC4540F2410FDE434FE8D82C7
:109E6700F583C083C082E0FEEF540FFF7401A8079B
:109E7700088002C333D8FC4E8028ED702AEFC45403
:109E87000F2410FDE434FE8D82F583C083C082E089
:109E9700FEEF540FFF7401A807088002C333D8FCF4
:089EA700F45ED082D083F022AA
:10559F00EF54F0FE7066ED14602014603214604713
:1055AF0024037058EF540FFC7401A804088002C341
:1055BF0033D8FCF4529352948042EF540FFC740191
:1055CF00A804088002C333D8FCFCF45293802AEF5E
:1055DF00540FFC7401A804088002C333D8FCFC42AA
:1055EF0093ECF452948015EF540FFC7401A8040847
:1055FF008002C333D8FCFC4293EC4294EE641070EB
:10560F0066ED14602014603214604724037058EF65
:10561F00540FFE7401A806088002C333D8FCF4525D
:10562F009152928042EF540FFE7401A80608800237
:10563F00C333D8FCFEF45291802AEF540FFE74014D
:10564F00A806088002C333D8FCFE4291EEF45292B2
:10565F008015EF540FFE7401A806088002C333D8DB
:10566F00FCFE4291EE4292EF54F064207066ED140E
:10567F00602014603214604724037058EF540FFEFB
:10568F007401A806088002C333D8FCF452955296D1
:10569F008042EF540FFE7401A806088002C333D86E
:1056AF00FCFEF45295802AEF540FFE7401A80608F1
:1056BF008002C333D8FCFE4295EEF452968015EF6C
:1056CF00540FFE7401A806088002C333D8FCFE42B3
:1056DF0095EE4296EF54F0FE64307066ED14602044
:1056EF0014603214604724037058EF540FFC740198
:1056FF00A804088002C333D8FCF452B152B28042DE
:10570F00EF540FFC7401A804088002C333D8FCFCCB
:10571F00F452B1802AEF540FFC7401A804088002E0
:10572F00C333D8FCFC42B1ECF452B28015EF540FE6
:10573F00FC7401A804088002C333D8FCFC42B1EC0E
:10574F0042B2EE64407066ED146020146032146053
:10575F004724037058EF540FFE7401A80608800207
:10576F00C333D8FCF452B352B48042EF540FFE74DB
:10577F0001A806088002C333D8FCFEF452B3802A76
:10578F00EF540FFE7401A806088002C333D8FCFE45
:10579F0042B3EEF452B48015EF540FFE7401A80615
:1057AF00088002C333D8FCFE42B3EE42B4EF54F08C
:1057BF0064507066ED146020146032146047240347
:1057CF007058EF540FFE7401A806088002C333D837
:1057DF00FCF452C952CA8042EF540FFE7401A8065E
:1057EF00088002C333D8FCFEF452C9802AEF540F4D
:1057FF00FE7401A806088002C333D8FCFE42C9EE2E
:10580F00F452CA8015EF540FFE7401A806088002E7
:10581F00C333D8FCFE42C9EE42CAEF54F0FE6460B7
:10582F007066ED14602014603214604724037058C2
:10583F00EF540FFC7401A804088002C333D8FCF4A2
:10584F0052CB52CC8042EF540FFC7401A804088055
:10585F0002C333D8FCFCF452CB802AEF540FFC74F4
:10586F0001A804088002C333D8FCFC42CBECF452ED
:10587F00CC8015EF540FFC7401A804088002C333C9
:10588F00D8FCFC42CBEC42CCEE64707064ED14603B
:10589F001F14603114604524037056EF540FFE74CB
:1058AF0001A806088002C333D8FCF452E152E22269
:1058BF00EF540FFE7401A806088002C333D8FCFE14
:1058CF00F452E18029EF540FFE7401A806088002FC
:1058DF00C333D8FCFE42E1EEF452E222EF540FFE46
:1058EF007401A806088002C333D8FCFE42E1EE42E1
:0258FF00E222A3
:06B0900043C780026EE9D7
:04003E0053C77F2203
:0CB02A00E5C730E0047F0180027F0022B7
:106EE90053C7F87F807EC37DFF7CFF900BE1E0F8FC
:106EF900A3E0F9A3E0FAA3E0FBC3121719400122AA
:106F09007F807EC37DFF7CFF900BE1E0F8A3E0F971
:106F1900A3E0FAA3E0FBD31217195019E4FF7E3658
:106F2900FDFC900BE1E0F8A3A3A3E0C312171940FD
:106F39000443C70122E4FF7E36FDFC900BE1E0F833
:106F4900A3E0F9A3E0FAA3E0FBD31217195019E45F
:106F5900FF7E2DFDFC900BE1E0F8A3A3A3E0C31293
:106F69001719400443C70222E4FF7E2DFDFC900B54
:106F7900E1E0F8A3E0F9A3E0FAA3E0FBD3121719C3
:106F89005019E4FF7E1BFDFC900BE1E0F8A3A3A3DD
:106F9900E0C3121719400443C70322E4FF7E1BFD17
:106FA900FC900BE1E0F8A3E0F9A3E0FAA3E0FBD33E
:106FB900121719501B7F807E8D7DFF7CFF900BE19E
:106FC900E0F8A3A3A3E0C3121719400443C704229E
:106FD9007F807E8D7DFF7CFF900BE1E0F8A3E0F9D7
:106FE900A3E0FAA3E0FBD3121719501B7FC07EC69A
:106FF9007DFF7CFF900BE1E0F8A3A3A3E0C3121788
:1070090019400443C705227FC07EC67DFF7CFF90DF
:107019000BE1E0F8A3E0F9A3E0FAA3E0FBD3121730
:1070290019501B7F807E847DFF7CFF900BE1E0F887
:10703900A3A3A3E0C3121719400443C706227F8004
:107049007E847DFF7CFF900BE1E0F8A3E0F9A3E0EB
:10705900FAA3E0FBD31217195019E47F407E42FDD1
:10706900FC900BE1E0F8A3A3A3E0C31217194003B6
:0470790043C70722E0
:10A49500900B6FEBF0A3EAF0A3E9F0AD07AC0675FE
:10A4A500C501900B72E0FF14F0EF60288DC4ECF548
:10A4B500C375C65A75C6A5900B6FE0FBA3E475F08E
:10A4C50001121513A9F0FAE5C212142C0DBD0001F5
:05A4D5000C0080CE2206
:10A4DA00900B75EBF0A3EAF0A3E9F0AD07AC0675B3
:10A4EA00C502900B78E0FF14F0EF60288DC4ECF5FC
:10A4FA00C3900B75E0FBA3E475F001121513A9F0E4
:10A50A00FA1213E6F5C20DBD00010C75C65A75C6DE
:05A51A00A50080CE2227
:10AFA00075C5038FC4EEF5C375C65A75C6A50022D4
:10AE6800EF1FAC0670011E4C600C00007D2C7C139B
:06AE7800DCFEDDFC80EAB7
:01AE7E0022B1
:10AEFB00EF1FAA0670011E4A60087D091DED60F068
:02AF0B0080FACA
:01AF0D002221
:06B09600256400256600A0
:0AB05400C2A2C2A1120006D2A2227D
:0AB05E00C2A2D2A1120006D2A22263
:04ABE200AD07AC0609
:10ABE600EC900C0AF0A3EFF0C2A2D2A1900C0AE0FE
:0EABF600FF120006900C0BE0FF120006D2A228
:01AC0400222D
:109CE200900AFFEEF0A3EFF0A3ECF0A3EDF0A3EAED
:109CF200F0A3EBF07F2A12B054E4FF12B05E900A98
:109D0200FFA3E02402FF12B05EE4FF12B05E900BEC
:109D120003A3E02402FF12B05E7F2B12B054E4FFD3
:109D220012B05E900B01A3E004FF12B05EE4FF12DA
:109D3200B05E900B05A3E004FF12B05E7F2C02B070
:019D420054CC
:08A12E00900BE9EEF0A3EFF045
:10A13600900B05E4F0A3749FF07B7F7A00E4FDFCAE
:10A14600FFFE129CE2E4900BEBF0E4900BECF09037
:10A156000BE9E0FEA3E0FF12ABE2900BECE004F0AB
:10A16600E0C3948040E9900BEBE004F0E0C394A0D8
:02A1760040D8CF
:01A1780022C4
:10658500900B3A7412F0E4A3F0A3F0A3F07B117D15
:10659500107F01128ABAC2A07F0A7E0012AED4D241
:1065A500A07F787E0012AED47F1112B0547F787E22
:1065B5000012AED47FB112B0547F0112B05E7F2CB1
:1065C50012B05E7F2D12B05E7FB212B0547F011201
:1065D500B05E7F2C12B05E7F2D12B05E7FB312B01D
:1065E500547F0112B05E7F2C12B05E7F2D12B05E1B
:1065F5007F0112B05E7F2C12B05E7F2D12B05E7FE0
:10660500B412B0547F0712B05E7FC012B0547FA29F
:1066150012B05E7F0212B05E7F8412B05E7FC1123F
:10662500B0547FC512B05E7FC212B0547F0A12B05B
:106635005EE4FF12B05E7FC312B0547F8A12B05E73
:106645007F2A12B05E7FC412B0547F8A12B05E7F7B
:10665500EE12B05E7FC512B0547F0E12B05E7F366B
:1066650012B0547E007F00E4701FEF14600E1460BA
:106675000F146010240370117FC0800AE4FF8006A8
:106685007FA080027F6012B05E7FE012B0547F0F62
:1066950012B05E7F1A12B05E7F0F12B05E7F1812C5
:1066A500B05E7F2F12B05E7F2812B05E7F2012B0E1
:1066B5005E7F2212B05E7F1F12B05E7F1B12B05E3E
:1066C5007F2312B05E7F3712B05EE4FF12B05E7FAB
:1066D5000712B05E7F0212B05E7F1012B05E7FE1DE
:1066E50012B0547F0F12B05E7F1B12B05E7F0F1287
:1066F500B05E7F1712B05E7F3312B05E7F2C12B092
:106705005E7F2912B05E7F2E12B05E7F3012B05EC2
:106715007F3012B05E7F3912B05E7F3F12B05EE40B
:10672500FF12B05E7F0712B05E7F0312B05E7F106E
:1067350012B05E7F2A12B054E4FF12B05E7F0212DF
:10674500B05EE4FF12B05E7F8212B05E7F2B12B0A6
:1067550054E4FF12B05E7F0312B05EE4FF12B05E38
:106765007F8312B05E7FF012B0547F0112B05E7F5E
:10677500F612B054E4FF12B05E7F3A12B0547F05B2
:0F67850012B05E7F2912B05474FFFFFE02A12EE6
:10A5A500900B79EEF0A3EFF0900B7DEAF0A3EBF0C2
:10A5B500900B7BECF0A3EDF0900B79E0FAA3E0FBB8
:10A5C500FFAE02C007A3E0FFA3E0900B05CFF0A309
:10A5D500EFF0D007129CE2900B7DE0FEA3E0FF02B6
:02A5E500ABE2E7
:0689FA00F583E02430FBD0
:108A0000900B07EEF0A3EFF0A3ECF0A3EDF0A3EBD7
:018A1000F075
:108A1100E4A3F0900B0CE0F9C394104003028AB96F
:108A2100E9FF900B0AE02FFD900B09E03400FC9068
:108A31000B08E02407FB900B07E03400FA7E00905E
:108A41000B09E0F8A3E02FFFEE38900B05F0A3EF40
:108A5100F0900B07E0FEA3E0FF129CE2900B0CE00C
:108A6100FF900B0BE075F010A4249EF582E5F03425
:108A7100FEF583E5822FF582E43583F583E4939057
:108A81000B0EF0E4900B0DF0900B0EE030E0067F42
:108A9100007EF8800474FFFFFE12ABE2900B0EE043
:108AA100C313F0900B0DE004F0E0C3940840D9909B
:088AB1000B0CE004F0028A1432
:018AB900229A
:1097C000900ADBEEF0A3EFF0A3ECF0A3EDF0A3EB37
:0797D000F0A3EAF0A3E9F0A9
:1097D700E4A3F0A3F0900ADFE0FBA3E0FAA3E0F92B
:1097E700A3E0FEA3E0FFF5828E831213FFFB603E2A
:1097F700EF7803C333CE33CED8F9FF900ADCE02FDE
:10980700FF900ADBE03EFE900ADEE0C4F8540FC882
:1098170068FD900ADDE0C454F048FC128A00900A03
:0E982700E3E004F070AF900AE2E004F080A7E6
:019835002210
:10879A00900AE4EEF0A3EFF0A3ECF0A3EDF0A3EB64
:0187AA00F0DE
:1087AB00C364809480900AE7E0C4F8540FC868FD56
:1087BB00900AE6E0C454F048FC900AE4E0FEA3E023
:1087CB00FF40077B20128A00800C7B2D128A0090C1
:1087DB000AE8E0F404F0900AE8E0FF75F064121385
:1087EB00C4900AE9F0EF75F00A1213C4FF75F00A92
:1087FB001213C4AFF0900AEAEFF0900AE8E0FF75AD
:10880B00F00A1213C4AFF0900AEBEFF0E4A3F09070
:10881B000AECE0FB2401FFE433FEEF7803C333CE15
:10882B0033CED8F9FF900AE5E02FFF900AE4E03E43
:10883B00FE900AE7E0C4F8540FC868FD900AE6E022
:10884B00C454F048FC74E92BF582E4340A1289FA1B
:0C885B00900AECE004F0E0C3940340B38A
:0188670022EE
:0E992100900B0FEEF0A3EFF0A3ECF0A3EDF02F
:10992F00EB75F06484A3F0EB75F00A8475F00A848C
:10993F00A3E5F0F0EB75F00A84A3E5F0F0E4A3F0F3
:10994F00900B16E0FB75F008A4FF900B10E02FFFB3
:10995F00900B0FE035F0FE900B12E0C4F8540FC8D7
:10996F0068FD900B11E0C454F048FC74132BF58282
:10997F00E4340B1289FA900B16E004F0E0C3940361
:02998F0040BED8
:0199910022B3
:107F0500900A6BEEF0A3EFF0A3ECF0A3EDF0A3EA7B
:047F1500F0A3EBF0FA
:107F1900C3EA64809480900A6EE0C4F8540FC8687C
:107F2900FD900A6DE0C454F048FC900A6BE0FEA392
:107F3900E0FF501C7B2D128A00900A6FE0FEA3E03F
:107F4900FFC3E49FFFE49E900A6FF0A3EFF0800562
:107F59007B20128A00900A6FE0FAA3E0FB7C277D60
:107F690010FFAE021214C7A3EFF07C037DE8AF0344
:107F7900AE021214C77C007D0A1214C7A3EDF0905B
:107F89000A6FA3E07C007D64FFAE021214C77C0077
:107F99007D0A1214C7900A73EDF07C007D0AAF03C5
:107FA900AE021214C77C007D0A1214C7A3EDF0902B
:107FB9000A6FE0FEA3E0FF7C007D0A1214C7900A55
:107FC90075EDF0E4A3F0900A76E0FB2401FFE433B9
:107FD900FEEF7803C333CE33CED8F9FF900A6CE0B5
:107FE9002FFF900A6BE03EFE900A6EE0C4F8540F32
:107FF900C868FD900A6DE0C454F048FC74712BF513
:1080090082E4340A1289FA900A76E004F0E0C39413
:038019000540B36C
:01801C002241
:0E8B7300900ABDEEF0A3EFF0A3ECF0A3EDF03E
:108B81007C277D10AF03AE02121472A3EFF07C03B9
:108B91007DE8AF03AE021214727C007D0A121472DA
:108BA100A3EDF07C007D64AF03AE021214727C0071
:108BB1007D0A121472A3EDF07C007D0AAF03AE02B0
:108BC1001214727C007D0A121472A3EDF0AE02AF92
:108BD100037C007D0A121472A3EDF0E4A3F0900A65
:108BE100C6E0FB75F008A4FF900ABEE02FFF900AD3
:108BF100BDE035F0FE900AC0E0C4F8540FC868FD2E
:108C0100900ABFE0C454F048FC74C12BF582E434EF
:108C11000A1289FA900AC6E004F0E0C3940540BE46
:018C21002230
:0E8342009009C9EEF0A3EFF0A3ECF0A3EDF06C
:108350009009D1E0FF740AC39F5003740AF090099A
:10836000D1E004F09009CDE0FCA3E0FDA3E0FEA382
:10837000E0FFE4FBFAF9F8D312170340319008A2AA
:1083800074FFF0A374B0F0A37496F09009CDE0FCF4
:10839000A3E0FDA3E0FEA3E0FF9008A51218530B95
:1083A0007A0979D2123DD99009F4EFF0803890091A
:1083B000D27420F09008A274FFF0A374B0F0A374FC
:1083C00096F09009CDE0FCA3E0FDA3E0FEA3E0FF62
:1083D0009008A51218537B017A0979D3123DD990E0
:1083E00009F4EFF0801E9009D1E0FF9009F4E0FE5F
:1083F000C39F501574D22EF582E43409F58374209E
:10840000F09009F4E004F080DD74D22FF582E434BA
:1084100009F583E4F09009C9E0FEA3E0FFA3E0FCC6
:0C842000A3E0FD7B017A0979D20297C02D
:0E75160090096BEEF0A3EFF0A3ECF0A3EDF004
:10752400900974E0FF7406C39F50037406F0900939
:1075340073E0FF740AC39F5003740AF090096FE06C
:10754400FCA3E0FDA3E0FEA3E0FFE4FBFAF9F812DC
:1075540011449008A26031402F74FFF0A374B0F07E
:10756400A37499F090096FE0FCA3E0FDA3E0FEA3EF
:10757400E0FF9008A51218537B017A097976123D31
:10758400D9900975EFF0803074FFF0A374B0F0A3C4
:107594007499F090096FE0FCA3E0FDA3E0FEA3E082
:1075A400FF9008A51218537B017A097977123DD907
:1075B400900975EFF0E004F0900975E024F9FD906E
:1075C4000973E0FEC3ED9E14900998F0900974E0ED
:1075D400AE052E04900999F0900998E0D36480F8E0
:1075E4007480984022A3E0FF3395E0FE74762FF573
:1075F4008274093EF5837420F0900999E004F090B8
:107604000998E004F080D190096FE0FCA3E0FDA3A9
:10761400E0FEA3E0FFE4FBFAF9F8121144900998A4
:1076240060174015E0FF3395E0FE74762FF5827401
:10763400093EF583742DF08013E0FF3395E0FE746A
:10764400762FF58274093EF5837420F0900999E051
:10765400FF3395E0FE74762FF58274093EF583E4DA
:10766400F090096BE0FEA3E0FFA3E0FCA3E0FD7B48
:08767400017A0979760297C042
:0B7DEA00900AA7EBF0A3EAF0A3E9F079
:107DF50074FFFFFE12A12EE4900AAEF0A3F0E4900A
:107E05000AACF0A3F0900AACE0FAA3E0FB7C007D9D
:107E150028FFAE02121460C006C007A3E0FEA3E06F
:107E2500FF121460C006C007AF03AE02121460EF64
:107E35002427FBE43EFA900AAEE0FEA3E0FF12140D
:107E450060EF2427FFE43E900B05F0A3EFF0D0058B
:107E5500D004D007D006129CE2E4900AAAF0A3F061
:107E6500900AABE025E0FF900AAAE033FE900AA74E
:107E7500E0FBA3E0FAA3E0F98F828E831213FF9053
:107E85000AB1F0E92FF9EA3EFA9000011213FF90CA
:107E95000AB0F0FEA3E0FDEDFF12ABE2900AABE005
:107EA50004F07006900AAAE004F0C3900AABE094CF
:107EB50040900AAAE06480948640A5900AADE0044B
:107EC500F07006900AACE004F0C3900AADE09403AC
:107ED500900AACE0648094805003027E0A900AAF59
:107EE500E004F07006900AAEE004F0C3900AAFE03B
:0F7EF5009404900AAEE0648094805003027E03F0
:017F0400225A
:10009E000000000000000000000000000000000052
:1000AE0000000008080808080808000008080000FA
:1000BE000048242412000000000000000000000090
:1000CE000000004848487E2424247E242424000076
:1000DE000000103C5252121C30505052523C101024
:1000EE00000000222515150D2A58545452220000E6
:1000FE000000000C1212120A76252919916E0000CA
:10010E0000060404020000000000000000000000D1
:10011E0000402010100808080808081010204000A1
:10012E000002040808101010101010080804020035
:10013E000000000008086B1C1C6B08080000000083
:10014E000000000000101010FE1010100000000043
:10015E000000000000000000000000000604040281
:10016E0000000000000000007E0000000000000003
:10017E000000000000000000000000000606000065
:10018E00000040202020101008080804040202007D
:10019E00000000182442424242424242241800000B
:1001AE00000000101C10101010101010107C000019
:1001BE000000003C4242424020100804427E0000F3
:1001CE000000003C4242402018204042423C0000C9
:1001DE0000000020303028242422FE2020F80000C9
:1001EE000000007E0202021E22404042221C00003D
:1001FE00000000182402023A4642424244380000EF
:10020E000000007E42202010100808080808000098
:10021E000000003C4242422418244242423C00006C
:10022E000000001C22424242625C40402418000042
:10023E000000000000001818000000001818000050
:10024E000000000000000008000000000008080880
:10025E000000004020100804020408102040000096
:10026E000000000000007E00007E00000000000084
:10027E0000000002040810204020100804020000B4
:10028E000000003C424246201010100018180000DA
:10029E000000001C225A55555555553A423C000057
:1002AE000000000808181414243C224242E7000003
:1002BE000000001F2222221E22424242221F000064
:1002CE000000007C4242010101010142221C00009B
:1002DE000000001F2242424242424242221F0000C0
:1002EE000000003F4212121E12120242423F000054
:1002FE000000003F4212121E1212020202070000FC
:10030E000000003C2222010101712122221C00006A
:10031E00000000E7424242427E42424242E7000073
:10032E000000003E0808080808080808083E0000FB
:10033E000000007C10101010101010101010110F73
:10034E000000007722120A0E0A12122222770000F3
:10035E00000000070202020202020202427F0000B7
:10036E000000007736363636362A2A2A2A6B0000E7
:10037E00000000E346464A4A52525262624700006B
:10038E000000001C2241414141414141221C00001C
:10039E000000003F424242423E02020202070000BB
:1003AE000000001C224141414141414D321C600080
:1003BE000000003F4242423E1212222242C700007B
:1003CE000000007C4242020418204042423E0000DF
:1003DE000000007F4908080808080808081C0000EB
:1003EE00000000E74242424242424242423C00008A
:1003FE00000000E7424222242414141808080000CA
:10040E000000006B2A2A2A2A2A361414141400001B
:10041E00000000E7422424181818242442E70000A4
:10042E00000000772222141408080808081C000097
:10043E000000007E2120101008040442423F0000FC
:10044E00007808080808080808080808080878004E
:10045E000000020404040808081010202020404068
:10046E00001E1010101010101010101010101E0082
:10047E000018240000000000000000000000000032
:10048E0000000000000000007E00000000000000E0
:10049E000006080000000000000000000000000040
:1004AE00000000000000001C22302C22326C0000E4
:1004BE00000000000302021A26424242261A0000E1
:1004CE000000000000000038440202024438000020
:1004DE00000000006040407C4242424262DC00006C
:1004EE00000000000000003C42427E02423C000040
:1004FE00000000003048083E08080808083E0000CA
:10050E00000000000000007C22221C023C42423C03
:10051E00000000000302023A4642424242E7000057
:10052E000000000C0C00000E08080808083E000031
:10053E000000003030000038202020202020221E15
:10054E000000000003020272120A0E12227700004F
:10055E00000000080E08080808080808083E0000F9
:10056E00000000000000007F9292929292B700006D
:10057E00000000000000003B4642424242E70000FD
:10058E00000000000000003C42424242423C00009B
:10059E00000000000000001B26424242261A0207FD
:1005AE00000000000000005864424242645840E0DF
:1005BE0000000000000000774C040404041F00003B
:1005CE00000000000000007C42023C40423E000061
:1005DE00000000000008083E080808084830000027
:1005EE0000000000000000634242424262DC000054
:1005FE0000000000000000772222141408080000FA
:10060E0000000000000000DB91525A2A2424000052
:10061E00000000000000006E241818182476000058
:10062E0000000000000000E7422424181808080605
:10063E00000000000000007E22100808447E00002A
:10064E0000C0202020202020102020202020C000AC
:10065E00101010101010101010101010101010108C
:10066E000003040404040404080404040404030042
:10067E00045A2000000000000000000000000000EE
:10068E000000000000000000002F00000000070026
:10069E00070000147F147F1400242A7F2A120062A0
:1006AE00640813230036495522500000050300004C
:1006BE0000001C224100000041221C000014083ED4
:1006CE0008140008083E0808000000A0600000089A
:1006DE0008080808000060600000002010080402EE
:1006EE00003E5149453E0000427F400000426151AC
:1006FE004946002141454B31001814127F10002746
:10070E0045454539003C4A49493000017109050308
:10071E0000364949493600064949291E0000363639
:10072E00000000005636000000081422410000149C
:10073E001414141400004122140800020151090679
:10074E0000324959513E007C1211127C007F4949FA
:10075E004936003E41414122007F4141221C007F2B
:10076E0049494941007F09090901003E4149497A39
:10077E00007F0808087F0000417F410000204041B3
:10078E003F01007F08142241007F40404040007F1F
:10079E00020C027F007F0408107F003E4141413E63
:1007AE00007F09090906003E4151215E007F0919AB
:1007BE0029460046494949310001017F0101003FA8
:1007CE004040403F001F2040201F003F4038403F28
:1007DE00006314081463000708700807006151498C
:1007EE00454300007F41410000552A552A5500001F
:1007FE0041417F000004020102040040404040409D
:10080E00000001020400002054545478007F484434
:10081E00443800384444442000384444487F00386B
:10082E005454541800087E0901020018A4A4A47C94
:10083E00007F080404780000447D4000004080845E
:10084E007D00007F102844000000417F4000007CA6
:10085E0004180478007C08040478003844444438B2
:10086E0000FC242424180018242418FC007C0804FE
:10087E00040800485454542000043F444020003CD7
:10088E004040207C001C2040201C003C4030403C5E
:10089E00004428102844001CA0A0A07C00446454EE
:1008AE004C44141414141414000000000000000032
:1008BE000000000000000000000000F80000000032
:1008CE00000000333000000000100C06100C060073
:1008DE00000000000000000040C07840C0784000DA
:1008EE00043F04043F040400007088FC083000003C
:1008FE00001820FF211E0000F008F000E018000094
:10090E0000211C031E211E0000F00888700000004C
:10091E001E2123241927211010160E00000000009E
:10092E000000000000000000000000E018040200BB
:10093E00000000071820400000020418E00000002C
:10094E000040201807000000404080F0804040002A
:10095E000202010F01020200000000F00000000080
:10096E000101011F01010100000000000000000054
:10097E0080B07000000000000000000000000000C9
:10098E000001010101010101000000000000000052
:10099E0000303000000000000000000080601804ED
:1009AE00006018060100000000E010080810E000CA
:1009BE00000F102020100F00001010F80000000093
:1009CE000020203F202000000070080808887000DA
:1009DE00003028242221300000300888884830005A
:1009EE000018202020110E000000C02010F800007A
:1009FE0000070424243F240000F808888808080013
:100A0E000019212020110E0000E010888818000027
:100A1E00000F112020110E0000380808C8380800F9
:100A2E000000003F00000000007088080888700079
:100A3E00001C222121221C0000E010080810E000FA
:100A4E000000312222110F00000000C0C000000083
:100A5E0000000030300000000000008000000000A8
:100A6E0000008060000000000000804020100800A0
:100A7E000001020408102000404040404040400069
:100A8E000404040404040400000810204080000044
:100A9E000020100804020100007048080808F00049
:100AAE000000003036010000C030C828E810E00019
:100ABE000718272423140B000000C038E0000000A4
:100ACE00203C23020227382008F88888887000000E
:100ADE00203F202020110E00C030080808083800E2
:100AEE00071820202010080008F808080810E00059
:100AFE00203F202020100F0008F88888E8081000FA
:100B0E00203F20202320180008F88888E8081000CD
:100B1E00203F200003000000C03008080838000005
:100B2E0007182020221E020008F808000008F80806
:100B3E00203F210101213F20000808F8080800008D
:100B4E000020203F2020000000000808F8080800C0
:100B5E00C08080807F00000008F888C02818080038
:100B6E00203F20012638200008F808000000000071
:100B7E00203F20202020300008F8F800F8F8080068
:100B8E00203F003F003F200008F830C00008F80862
:100B9E00203F200007183F00E01008080810E00072
:100BAE000F10202020100F0008F808080808F00089
:100BBE00203F210101010000E01008080810E000AC
:100BCE000F18242438504F0008F888888888700041
:100BDE00203F2000030C30200070880808083800E1
:100BEE000038202121221C00180808F808081800D7
:100BFE000000203F2000000008F808000008F80858
:100C0E00001F202020201F000878880000C8380808
:100C1E00000007380E010000F80800F80008F80080
:100C2E00033C0700073C030008186880806818081A
:100C3E0020302C03032C30200838C800C838080098
:100C4E000000203F2000000010080808C8380800E7
:100C5E002038262120201800000000FE020202008B
:100C6E000000007F40404000000C30C0000000003B
:100C7E00000000010638C00000020202FE00000063
:100C8E00004040407F000000000004020202040009
:100C9E000000000000000000000000000000000046
:100CAE00808080808080808000020204000000002E
:100CBE000000000000000000000080808080000026
:100CCE000019242222223F2008F800808000000014
:100CDE00003F112020110E000000008080800000D7
:100CEE00000E112020201100000000808088F800E6
:100CFE00000E112020103F20000080808080000018
:100D0E00001F222222221300008080F0888888187B
:100D1E000020203F20200000000080808080800086
:100D2E00006B94949493600008F80080808000001B
:100D3E00203F210000203F200080989800000000F6
:100D4E000020203F20200000000000809898000026
:100D5E0000C08080807F000008F800008080800046
:100D6E00203F24022D302000000808F8000000006B
:100D7E000020203F20200000808080808080800026
:100D8E00203F20003F20003F8080008080800000B8
:100D9E00203F210000203F20000080808080000046
:100DAE00001F202020201F00808000808000000077
:100DBE0080FFA12020110E000000008080808000A6
:100DCE00000E112020A0FF80808080008080800097
:100DDE0020203F21200001000000808080808000C4
:100DEE000033242424241900008080E08080000039
:100DFE000000001F20200000808000000080800086
:100E0E00001F202020103F208080800000808080E6
:100E1E0000010E3008060100808000800080808076
:100E2E000F300C030C300F0000808000808080009B
:100E3E000020312E0E3120008080800000808080C6
:100E4E0080818E7018060100008080808080800076
:100E5E000021302C2221300000000000807C020294
:100E6E0000000000003F404000000000FF000000B6
:100E7E0000000000FF0000000002027C8000000065
:100E8E000040403F00000000000601010202040481
:080E9E0000000000000000004C
:10AB7300E4900C16F0900C16E064126017E4FB7D71
:10AB8300757F6912A81A900C16EFF07F0A7E0012E7
:04AB9300AED480E1DB
:01AB9700229B
:109BB8007F0A7E0012AED412AB737B807D6B7F6907
:109BC80012AD627F027E0012AED4E4FB7D6B7F692A
:109BD80012A81AEF20E7F37B017D6B7F6912AD6253
:109BE800E4FB7D6C7F6912AD627B017D1A7F69128F
:109BF800AD627B077D197F6912AD627B187D1B7F83
:109C08006912AD627B107D1C7F6912AD627B037D9A
:069C18001D7F6902AD6230
:109FFA007B017A0B797F900B517406F0E4A3F07D14
:10A00A003B7F69129748900B7FE0FEA3E0FDEDFFCE
:10A01A00900A77EEF0A3EFF0900B81E0FEA3E0FD4B
:10A02A00EDFF900A79EEF0A3EFF0900B83E0FEA328
:0CA03A00E0FDEDFF900A7BEEF0A3EFF0DC
:01A0460022F7
:10A047007B017A0B7985900B517406F0E4A3F07DC0
:10A05700437F69129748900B85E0FEA3E0FDEDFF73
:10A06700900A7DEEF0A3EFF0900B87E0FEA3E0FDF2
:10A07700EDFF900A7FEEF0A3EFF0900B89E0FEA3CF
:0CA08700E0FDEDFF900A81EEF0A3EFF089
:01A0930022AA
:06ACAE00C2A6EF4480FF86
:10ACB400E4FEEF3392A3EF25E0FFC2A5D2A5A2A440
:09ACC400E4334FFF0EEEB408E981
:01ACCD002264
:0D001600C2A612ACB4AF0512ACB4D2A62243
:0FAFFD0012ACAEE4FF12ACB4EF12142CD2A622A9
:0BA66A00900BD8EBF0A3EAF0A3E9F09E
:10A6750012ACAEE4FDFC900BDBE0FFC3ED9FEC9468
:10A6850000501FE4FF12ACB4900BD8E0FBA3E0FA36
:10A69500A3E0F98D828C83EF12143E0DBD00010CF1
:04A6A50080D4D2A6E5
:01A6A900228E
:10AF0E007B017A0C79177F7512AFFD900C17E0B4A8
:02AF1E0012EE31
:01AF2000220E
:109F050012AF0E7D807F6B1200167F027E0012AEAF
:109F1500D47B017A0C79187F6B12AFFD900C18E099
:109F2500B441EE7D017F6B1200161D7F6C12001689
:109F35000D7F1A1200167D077F191200167D187FF6
:109F45001B1200167D107F1C1200167D037F1D025B
:029F55000016F4
:10A2E8007B017A0B798B900BDB7406F07F3B12A60F
:10A2F8006A900B8BE0FEA3E0FDEDFF900A77EEF08D
:10A30800A3EFF0900B8DE0FEA3E0FDEDFF900A793E
:10A31800EEF0A3EFF0900B8FE0FEA3E0FDEDFF90D1
:07A328000A7BEEF0A3EFF049
:01A32F00220B
:10A330007B017A0B7991900BDB7406F07F4312A6B8
:10A340006A900B91E0FEA3E0FDEDFF900A7DEEF038
:10A35000A3EFF0900B93E0FEA3E0FDEDFF900A7FEA
:10A36000EEF0A3EFF0900B95E0FEA3E0FDEDFF9083
:07A370000A81EEF0A3EFF0FB
:01A3770022C3
:0EAF5A00EBF0A3EAF0A3E9F0C2A6EF4480FFFB
:04AF680012000622AB
:10002600900C19EDF0C2A612AF68900C19E0FF1201
:05003600AF68D2A62214
:10AD2800900BF712AF5AE4FF12AF68900BF7E0FBF5
:0DAD3800A3E0FAA3E0F9EF12142CD2A6223A
:039F5700900B4626
:109F5A0012AF5AE4900B4AF0A3F0900B49E0FFC30A
:109F6A00900B4BE09F900B4AE09400502FE4FF12B5
:109F7A00AF68900B46E0FBA3E0FAA3E0F9900B4A26
:109F8A00E0FCA3E0F5828C83EF12143E900B4BE0C9
:0E9F9A0004F070C6900B4AE004F080BED2A620
:019FA8002296
:10AC0500E4900C1AF0900C1AE0641260147B017A3F
:10AC15000C791A7F7512AD287F0A7E0012AED4809A
:01AC2500E44A
:01AC2600220B
:1098AC00E4900C1BF07F0AFE12AED4900B3A7412AB
:1098BC00F0E4A3F0A3F0A3F07B117D107F01128ADA
:1098CC00BA12AC057D807F6B1200267F027E0012DF
:1098DC00AED47B017A0C791B7F6B12AD28900C1BDC
:1098EC00E0B441EE7D017F6B120026E4FD7F6C122B
:1098FC0000267D017F1A1200267D077F1912002693
:10990C007D187F1B1200267D107F1C1200267D0304
:05991C007F1D02002682
:10A378007B017A0B7997900B497406F07F3B129F0B
:10A3880057900B97E0FEA3E0FDEDFF900A77EEF003
:10A39800A3EFF0900B99E0FEA3E0FDEDFF900A79A2
:10A3A800EEF0A3EFF0900B9BE0FEA3E0FDEDFF9035
:07A3B8000A7BEEF0A3EFF0B9
:01A3BF00227B
:10A3C0007B017A0B799D900B497406F07F43129FB5
:10A3D00057900B9DE0FEA3E0FDEDFF900A7DEEF0AF
:10A3E000A3EFF0900B9FE0FEA3E0FDEDFF900A7F4E
:10A3F000EEF0A3EFF0900BA1E0FEA3E0FDEDFF90E7
:07A400000A81EEF0A3EFF06A
:01A407002232
:01004200229B
:07AE7F00C2A512AE86D2A5A8
:0EAE86007F147E00EF1FAC0670011E4C70F6AC
:01AE9400229B
:0FB00C00D2A3D2A512AE86C2A312AE86C2A522CF
:0AB06800C2A312AE7FD2A302AE868F
:10ADD100AD07C2A512AE86ED6004C2A38002D2A364
:0AADE100D2A512AE86C2A502AE860E
:10AE950012AE7F30A306C2A5E4FEFF22C2A512AE04
:06AEA500867E007F012201
:04AB0100E025E0FF6C
:02AB0500AD079A
:10AB07007B08AF031BEF6015ED30E704D2A380028B
:10AB1700C2A3ED25E0FD12AE81C2A580E502AE9588
:02A95F00AD0742
:10A96100E4FBC2A512AE86D2A3E4FA12AE8612AE01
:10A971007FEB25E0FB30A3010B0AEAB408EDC2A589
:0AA9810012AE86AF0512ADD1AF0390
:01A98B0022A9
:10AD62009007D8EFF0AA03A90512B00C12AB01AFFD
:0CAD72000112AB05AF0212AB0502B06885
:09A81A009007FAEDF0AA07A9036A
:10A8230012B00CEA25E0FF12AB05E0FF12AB05E91D
:10A83300B4010312B06812B00CAF02EF25E044017B
:10A84300FF12AB05E4FF12A95FAD0712B068AF05B5
:01A8530022E2
:10974800900B4CEFF0A3EDF0A3EBF0A3EAF0A3E944
:10975800F012B00C900B4C12AB01A3E0FF12AB055A
:10976800900B52E0B4010312B06812B00C900B4C8D
:10977800E025E04401FF12AB05900B51E014F060C6
:10978800207F0112A95F900B4EE0FBA3E0FAA3E053
:10979800F9EF12142C900B4FE475F0011214FD80B0
:1097A800D8E4FF12A95F900B4EE0FBA3E0FAA3E018
:0897B800F9EF12142C02B06855
:10AFB0007D017F0312A4087D0A7C00E4FF0279482A
:10915C00900BDDEBF0A3EAF0A3E9F0900BDCEFF061
:10916C00E4900BE0F0FD129DB2900BDCE0FF7DFF74
:10917C00129DB2900BDCE0FF7D01129DB2900BDCD6
:10918C00E0FFE4FD129DB2E4900BE0F0900BE0E008
:10919C00FFC39480504C900BDDE0FBA3E0FAA3E0FE
:1091AC00F975F002EFA4F58285F0831215547D0059
:1091BC00900BDCE0FF129DB2900BDDE0FBA3E0FA1C
:1091CC00A3E0F9A3E075F002A4F58285F0831215F3
:1091DC0054FD900BDCE0FF129DB2900BE0E004F02C
:0291EC0080AA57
:0191EE00225E
:10A72900E4900773F0D2C8C2C9C2C8D2C9D2C8C29C
:10A73900C9F0C2C87D027F0312A98C900773E02576
:10A74900E024DFF582E43403F583EEF0A3EFF0D2E1
:0DA75900C8900773E004F0E0C3948040D581
:01A7660022D0
:06B09C002564002566009A
:0AB07200C2A2C2A1120006D2A2225F
:0AB07C00C2A2D2A1120006D2A22245
:07AA0D002428FFE03400FEE5
:04AA1400AD07AC06D8
:10AA1800EC900C0CF0A3EFF0C2A2D2A1900C0CE0C9
:0EAA2800FF120006900C0DE0FF120006D2A2F5
:01AA360022FD
:10767C00900B3A7412F0E4A3F0A3F0A3F07B117D0D
:10768C00107F01128ABAD2A7C2A1C2A07FC87E0005
:10769C0012AED4D2A07F647E0012AED47F3612B06C
:1076AC00727FA012B07C7F3A12B0727F0512B07C50
:1076BC007FB212B0727F0C12B07C7F0C12B07CE4E3
:1076CC00FF12B07C7F3312B07C7F3312B07C7FB75B
:1076DC0012B0727F3512B07C7FBB12B0727F371242
:1076EC00B07C7FC012B0727F2C12B07C7FC212B003
:1076FC00727F0112B07C7FC312B0727F1212B07C09
:10770C007FC412B0727F2012B07C7FC612B0727F21
:10771C000F12B07C7FD012B0727FA412B07C7FA10C
:10772C0012B07C7FE012B0727FD012B07C7F04125A
:10773C00B07C7F0D12B07C7F1112B07C7F1312B025
:10774C007C7F2B12B07C7F3F12B07C7F5412B07CBC
:10775C007F4C12B07C7F1812B07C7F0D12B07C7FF6
:10776C000B12B07C7F1F12B07C7F2312B07C7FE1A8
:10777C0012B0727FD012B07C7F0412B07C7F0C12DE
:10778C00B07C7F1112B07C7F1312B07C7F2C12B0B6
:10779C007C7F3F12B07C7F4412B07C7F5112B07C56
:1077AC007F2F12B07C7F1F12B07C7F1F12B07C7FAA
:1077BC002012B07C7F2312B07C7F2112B0727F111B
:1077CC0012B0727F787E0012AED47F2912B0727420
:0677DC00FFFFFE0299927E
:109FA900900B17EEF0A3EFF0A3ECF0A3EDF0A3EA0A
:109FB900F0A3EBF07F2A12B072900B18E0900B1708
:109FC90012AA0D900B1CE0900B1B12AA0D7F2B12ED
:109FD900B072900B1AE02434FF900B1912AA10905A
:109FE9000B1EE02434FF900B1D12AA107F2C02B027
:019FF90072F5
:08999200900BA9EEF0A3EFF029
:10999A00900B1D7401F0A3743FF0FB7A01E4FDFC07
:1099AA00FFFE129FA9E4900BABF0A3F0E4900BAD7D
:1099BA00F0A3F0900BA9E0FEA3E0FF12AA14900B0B
:1099CA00AEE004F07006900BADE004F0C3900BAE6D
:1099DA00E09440900BADE0940140D8900BACE004C9
:1099EA00F07006900BABE004F0C3900BACE094402F
:0899FA00900BABE0940140B4B6
:019A02002241
:10A5E700900BAFEEF0A3EFF0900BB3EAF0A3EBF014
:10A5F700900BB1ECF0A3EDF0900BAFE0FAA3E0FB0A
:10A60700FFAE02C007A3E0FFA3E0900B1DCFF0A3AE
:10A61700EFF0D007129FA9900BB3E0FEA3E0FF0273
:02A62700AA1473
:0685F200F583E02430FBDC
:1085F800900B1FEEF0A3EFF0A3ECF0A3EDF0A3EBCC
:01860800F081
:10860900E4A3F0900B24E0F9C3941040030286C65A
:10861900E9FF900B22E02FFD900B21E03400FC9044
:108629000B20E02407FB900B1FE03400FA7E00903A
:108639000B21E0F8A3E02FFFEE38900B1DF0A3EF1C
:10864900F0900B1FE0FEA3E0FF129FA9900B23E01F
:10865900FF3395E0FEEFC4F8540FC868FFEEC45429
:10866900F048FE749E2FF58274FE3EF583C083C0E8
:1086790082900B24E0D082D0832582F582E4358371
:10868900F583E493900B26F0E4900B25F0900B26EC
:10869900E030E0067F007EF8800474FFFFFE12AA36
:1086A90014900B26E0C313F0900B25E004F0E0C30F
:0D86B900940840D9900B24E004F002860CD8
:0186C6002291
:10983600900AEDEEF0A3EFF0A3ECF0A3EDF0A3EBAE
:07984600F0A3EAF0A3E9F032
:10984D00E4A3F0A3F0900AF1E0FBA3E0FAA3E0F9A2
:10985D00A3E0FEA3E0FFF5828E831213FFFB603EB3
:10986D00EF7803C333CE33CED8F9FF900AEEE02F55
:10987D00FF900AEDE03EFE900AF0E0C4F8540FC8E8
:10988D0068FD900AEFE0C454F048FC1285F8900A88
:0E989D00F5E004F070AF900AF4E004F080A74C
:0198AB00229A
:10886800900AF6EEF0A3EFF0A3ECF0A3EDF0A3EB83
:01887800F00F
:10887900C364809480900AF9E0C4F8540FC868FD75
:10888900900AF8E0C454F048FC900AF6E0FEA3E030
:10889900FF500E7B2D1285F8900AFAE0F404F0805F
:1088A900057B201285F8900AFAE0FF75F06412132F
:1088B900C4900AFBF0EF75F00A1213C4FF75F00AB1
:1088C9001213C4AFF0900AFCEFF0900AFAE0FF75BA
:1088D900F00A1213C4AFF0900AFDEFF0E4A3F09090
:1088E9000AFEE0FB2401FFE433FEEF7803C333CE35
:1088F90033CED8F9FF900AF7E02FFF900AF6E03E51
:10890900FE900AF9E0C4F8540FC868FD900AF8E02F
:10891900C454F048FC74FB2BF582E4340A1285F246
:0C892900900AFEE004F0E0C3940340B3A9
:01893500221F
:0E9A0300900B27EEF0A3EFF0A3ECF0A3EDF034
:109A1100EB75F06484A3F0EB75F00A8475F00A84A9
:109A2100A3E5F0F0EB75F00A84A3E5F0F0E4A3F010
:109A3100900B2EE0FB75F008A4FF900B28E02FFFA0
:109A4100900B27E035F0FE900B2AE0C4F8540FC8C4
:109A510068FD900B29E0C454F048FC742B2BF5826F
:109A6100E4340B1285F2900B2EE004F0E0C3940372
:029A710040BEF5
:019A730022D0
:10801D00900A83EEF0A3EFF0A3ECF0A3EDF0A3EA4A
:04802D00F0A3EBF0E1
:10803100C3EA64809480900A86E0C4F8540FC8684B
:10804100FD900A85E0C454F048FC900A83E0FEA349
:10805100E0FF501C7B2D1285F8900A87E0FEA3E01B
:10806100FFC3E49FFFE49E900A87F0A3EFF0800531
:108071007B201285F8900A87E0FAA3E0FB7C277D3C
:1080810010FFAE021214C7A3EFF07C037DE8AF032B
:10809100AE021214C77C007D0A1214C7A3EDF09042
:1080A1000A87A3E07C007D64FFAE021214C77C0046
:1080B1007D0A1214C7900A8BEDF07C007D0AAF0394
:1080C100AE021214C77C007D0A1214C7A3EDF09012
:1080D1000A87E0FEA3E0FF7C007D0A1214C7900A24
:1080E1008DEDF0E4A3F0900A8EE0FB2401FFE43370
:1080F100FEEF7803C333CE33CED8F9FF900A84E084
:108101002FFF900A83E03EFE900A86E0C4F8540FE8
:10811100C868FD900A85E0C454F048FC74892BF5C9
:1081210082E4340A1285F2900A8EE004F0E0C394EE
:038131000540B353
:018134002228
:0E8C2200900AC7EEF0A3EFF0A3ECF0A3EDF084
:108C30007C277D10AF03AE02121472A3EFF07C0309
:108C40007DE8AF03AE021214727C007D0A1214722A
:108C5000A3EDF07C007D64AF03AE021214727C00C1
:108C60007D0A121472A3EDF07C007D0AAF03AE0200
:108C70001214727C007D0A121472A3EDF0AE02AFE2
:108C8000037C007D0A121472A3EDF0E4A3F0900AB5
:108C9000D0E0FB75F008A4FF900AC8E02FFF900A0F
:108CA000C7E035F0FE900ACAE0C4F8540FC868FD6A
:108CB000900AC9E0C454F048FC74CB2BF582E4342C
:108CC0000A1285F2900AD0E004F0E0C3940540BE99
:018CD0002281
:0E842C009009F5EEF0A3EFF0A3ECF0A3EDF055
:10843A009009FDE0FF740AC39F5003740AF0900983
:10844A00FDE004F09009F9E0FCA3E0FDA3E0FEA33F
:10845A00E0FFE4FBFAF9F8D312170340319008A2BF
:10846A0074FFF0A374B0F0A3749CF09009F9E0FCD7
:10847A00A3E0FDA3E0FEA3E0FF9008A51218530BAA
:10848A007A0979FE123DD9900A20EFF080389009D6
:10849A00FE7420F09008A274FFF0A374B0F0A374E5
:1084AA009CF09009F9E0FCA3E0FDA3E0FEA3E0FF45
:1084BA009008A51218537B017A0979FF123DD990C9
:1084CA000A20EFF0801E9009FDE0FF900A20E0FEEE
:1084DA00C39F501574FE2EF582E43409F583742087
:1084EA00F0900A20E004F080DD74FE2FF582E43477
:1084FA0009F583E4F09009F5E0FEA3E0FFA3E0FCB0
:0C850A00A3E0FD7B017A0979FE0298369F
:0E77E20090099AEEF0A3EFF0A3ECF0A3EDF007
:1077F0009009A3E0FF7406C39F50037406F090093C
:10780000A2E0FF740AC39F5003740AF090099EE03F
:10781000FCA3E0FDA3E0FEA3E0FFE4FBFAF9F8120D
:1078200011449008A26031402F74FFF0A374B0F0AF
:10783000A3749FF090099EE0FCA3E0FDA3E0FEA3EB
:10784000E0FF9008A51218537B017A0979A5123D33
:10785000D99009A4EFF0803074FFF0A374B0F0A3C6
:10786000749FF090099EE0FCA3E0FDA3E0FEA3E07E
:10787000FF9008A51218537B017A0979A6123DD909
:107880009009A4EFF0E004F09009A4E024F9FD9041
:1078900009A2E0FEC3ED9E149009C7F09009A3E091
:1078A000AE052E049009C8F09009C7E0D36480F8B3
:1078B0007480984022A3E0FF3395E0FE74A52FF575
:1078C0008274093EF5837420F09009C8E004F090BA
:1078D00009C7E004F080D190099EE0FCA3E0FDA37D
:1078E000E0FEA3E0FFE4FBFAF9F81211449009C7A7
:1078F00060174015E0FF3395E0FE74A52FF5827404
:10790000093EF583742DF08013E0FF3395E0FE749B
:10791000A52FF58274093EF5837420F09009C8E024
:10792000FF3395E0FE74A52FF58274093EF583E4DC
:10793000F090099AE0FEA3E0FFA3E0FCA3E0FD7B4A
:08794000017A0979A5029836CD
:10707D00900A21EEF0A3EFF0A3ECF0A3EDF0A3EB5B
:02708D00F0F918
:10708F00E0FF131313541F900A33F0900A29E08F77
:10709F00F0A424FFFDE5F034FFFC900A21E0FEA3ED
:1070AF00E0FF2DFBEE3CFAC002C003C006A3E0FCDC
:1070BF00A3E0FDE9FB7A00900A23E0F8A3E02BFBA5
:1070CF00EA38CB24FFFEEB34FF900B1DF0A3CEF07C
:1070DF00D006D003D002129FA9E4900A2CF0A3F09F
:1070EF00900A25E0FF900A2CE0FCA3E0FDC39F74FB
:1070FF0080F8EC6480984003027210900A29E090A7
:10710F000A32F0A3E0FF7E00121460900A26E0FB23
:10711F00A3E0FAA3E02FF9EA3E0271F0900A32E001
:10712F00FF14F0EF70030271FFE4900A30F0A3F048
:10713F00900A33E0FFC3900A31E09F7480F8900A01
:10714F0030E06480985077900A2EE4F0A37408F032
:10715F00900A2EE0FEA3E0FFD39400EE64809480AB
:10716F004041900A34E0FBA3E0FAA3E0F91213E6E2
:10717F00FDEF14FFEDA807088002C313D8FC5401DC
:10718F00600A900A2AE0FEA3E0FF800474FFFFFE6E
:10719F0012AA14900A2FE024FFF0900A2EE034FF79
:1071AF00F080AD900A35E475F0011214FD900A31AC
:1071BF00E004F07006900A30E004F002713F900A8C
:1071CF0033E0FFFDA3E0FBA3E0FAA3E0C39DF9EAE0
:1071DF009400FA900A25E0FEEF8EF0A429F9EA3523
:1071EF00F0FA900A34EBF0A3EAF0A3E9F002712B66
:1071FF00900A2DE004F07006900A2CE004F0027063
:01720F00EF8F
:01721000225B
:10ACCE00E4FB7D6B7F6812AD627B077D197F681296
:0FACDE00AD62E4FB7D197F6812A81ABF07F4224C
:10A256007F647E0012AED412ACCEE4FB7D6B7F68C9
:10A2660012AD627B077D197F6812AD627B047D1A91
:10A276007F6812AD627B187D1B7F6812AD627B1012
:10A286007D1C7F6812AD62E4FB7D6A7F6812AD6259
:09A296007B027D377F6802AD6296
:10A094007B017A0B79B5900B517406F0E4A3F07D43
:10A0A4003B7F68129748900BB5E0FEA3E0FDEDFFFF
:10A0B400900A8FEEF0A3EFF0900BB7E0FEA3E0FD63
:10A0C400EDFF900A91EEF0A3EFF0900BB9E0FEA340
:0CA0D400E0FDEDFF900A93EEF0A3EFF02A
:01A0E000225D
:10A0E1007B017A0B79BB900B517406F0E4A3F07DF0
:10A0F100437F68129748900BBBE0FEA3E0FDEDFFA4
:10A10100900A95EEF0A3EFF0900BBDE0FEA3E0FD09
:10A11100EDFF900A97EEF0A3EFF0900BBFE0FEA3E6
:0CA12100E0FDEDFF900A99EEF0A3EFF0D6
:01A12D00220F
:10AF2100EF1FAA0670011E4A60087D091DED60F041
:02AF310080FAA4
:01AF330022FB
:0BAB9800C2CCEF4480FF12ABA3AF055E
:10ABA300E4FEEF3392FDEF25E0FFC2FFD2FFA2FEEA
:09ABB300E4334FFF0EEEB408E993
:01ABBC002276
:06B0A20012AB98D2CC2293
:10AEAB00C2CCEF4440FF12ABA3E4FF12ABA3EF12F3
:05AEBB00142CD2CC2292
:10AC8D0012AB98D2CCC2CCE4FF12ABA3AC07E4FF5D
:10AC9D0012ABA3D2CCAF04ED6F60037F01227F0016
:01ACAD002284
:10A6AA00900BFAEBF0A3EAF0A3E9F0C2CCEF444036
:10A6BA00FF12ABA3E4FF12ABA3D2CC7F017E001240
:10A6CA00AF21C2CCE4FF12ABA3900BFAE0FBA3E0EC
:10A6DA00FAA3E0F9EF12142CE4FF12ABA3D2CC22B6
:10AAD900AB07AA06C3E49BFB74109AFAEBC4F854BB
:10AAE9000FC868FBEAC454F048FAAD03E4FF12AC9E
:08AAF9008DEAFD7F0102AC8D26
:10ABBD00C2CCE4FF12ABA3AD07ED7D00FCE4FF12A8
:10ABCD00ABA3D2CCAE04EEC4F854F0C868FEEFC40B
:04ABDD00540F48FFCA
:01ABE1002251
:10AF34007B017A0C791C7F0612A6AA900C1CE0B443
:02AF44001CEE01
:01AF460022E8
:10AFC00012AF34E4FD7F0912AC8DE4FFFE02AAD972
:0EAF6C00EBF0A3EAF0A3E9F0C2CCEF4440FF03
:04AF7A001200062299
:10AE0500900C1DEDF0C2CCEF4480FF12AF7A900C90
:09AE15001DE0FF12AF7AD2CC223D
:10AD4500900BFD12AF6CE4FF12ABA3900BFDE0FB83
:0DAD5500A3E0FAA3E0F9EF12142CD2CC22F7
:05A76700900C0EEDF066
:10A76C00C2CCEF4480FF12AF7A900C0EE0FF12AF18
:10A77C007AD2CCC2CCE4FF12AF7A900C0FEFF0E49B
:10A78C00FF12AF7AD2CC900C0FE0FF900C0EE06F62
:07A79C0060037F01227F0032
:01A7A3002293
:10A9E200900C0012AF6CE4FF12AF7AD2CCC2CCE46E
:10A9F200FF12AF7A900C00E0FBA3E0FAA3E0F9EFBC
:0BAA020012142CE4FF12AF7AD2CC2219
:10A85400900C10EEF0A3EFF0C3E49FF074109E9000
:10A864000C10F0A3E0C4F8540FC868FF900C10E07B
:10A87400C454F048F0A3EFF0FDE4FF12A767900C76
:08A8840010E0FD7F0102A7674F
:10A62900E4900C12F0A3F0C2CCFF12AF7A900C1296
:10A63900E4F0A3EFF0E0F8E4F0E8900C12F0E4FFA6
:10A6490012AF7A900C12E0F0A3E04FF0D2CC900C4C
:10A6590012E0C4F854F0C868FEA3E0C4540F48FFE0
:01A6690022CE
:10AF47007B017A0C791E7F0612A9E2900C1EE0B4F1
:02AF57001CEEEE
:01AF590022D5
:10AB2700900B3A7422F0E4A3F0A3F0A3F07B217D0D
:10AB3700207F02128ABA12AF47E4FD7F0912A76786
:06AB4700E4FFFE02A85429
:10AE1E009007DB12185F0001C2009007DF7404F088
:09AE2E007B117D107F03026D42CF
:108CD100900B53EBF0A3EAF0A3E9F0A38062E47FE9
:108CE1001EFEFDFC900B56E0F8A3E0F9A3E0FAA309
:108CF100E0FBD3121719404D308702804B900B5384
:108D0100E0FBA3E0FAA3E0F9900B6BE4F0A3741E7F
:108D1100F07F0312AA89900B54E475F01E1214FD22
:108D2100900B56E0FCA3E0FDA3E0FEA3E0C3941E7C
:108D3100FFEE9400FEED9400FDEC9400FC900B56C8
:108D4100121853809930870F900B56E0FCA3E0FD79
:108D5100A3E0FEA3E0FF22900B53E0FBA3E0FAA304
:108D6100E0F9A3A3A3E0FFA3E0900B6BCFF0A3EF87
:0C8D7100F07F0312AA89E4FFFEFDFC2243
:0E942600900B5AEBF0A3EAF0A3E9F0A3EDF0EF
:1094340074FFA3F0A3F0E4A3F0900B5DE0FF900BA6
:1094440060E0FEC39F505B900B5AE0FBA3E0FAA3DD
:10945400E0F98E827583001213FFFF900B5EE0F03B
:10946400A3E06FF0E4FD900B5EE0FEA3E0FF30E0CC
:1094740019EEC313FEEF13FFEE64A0FEEF6401FFC9
:10948400900B5EEEF0A3EFF0800B900B5EE0C31345
:10949400F0A3E013F00DEDB408CC900B60E004F001
:0A94A4008097900B5EE0FEA3E0FF4E
:0194AE00229B
:108F7900900AB4ECF0A3EDF0A3EAF0A3EBF0900AA9
:068F8900B2EEF0A3EFF0D0
:108F8F00E4FC900ABAE0FBA3E0FAA3E0F9EF1214B5
:108F9F002C900AB2E0FEEEFF900ABAE0FBA3E0FAD3
:108FAF00A3E0F9900001EF12143E900AB4A3E090F1
:108FBF00000212143E900AB4E0FEEE900003121469
:108FCF003E900AB6A3E090000412143E900AB6E059
:108FDF00FEEE90000512143E900AB8A3E090000632
:108FEF0012143E900AB8E0FEEE90000712143E7D78
:108FFF0008129426900ABAE0FBA3E0FAA3E0F990D6
:0D900F000008EF12143EEE90000902143E1E
:106B90009008D1E0FBA3E475F004121513A9F0FAF4
:106BA00012173D9008F61218539008F6E0FCA3E087
:106BB000FDA3E0FEA3E0FF7B017A0879D5E4900A0B
:066BC0003EF0A37410F08A
:106BC600900A37121853900A3BEBF0A3EAF0A3E9B8
:016BD600F0CE
:106BD700E4900A48F0A3F0900A3EE07003026C9537
:106BE700900A37E0FCA3E0FDA3E0FEA3E0FF900AD4
:106BF70040121853900A40E0FCA3E0FDA3E0FEA377
:106C0700E0FFEC335010900A40A3A3A3E01216F55F
:106C1700900A40121853900A3FE0FBE4FAF9F8A3F0
:106C2700E0FCA3E0FDA3E0FEA3E0FF12A51FEB2419
:106C370030FF900A3BE0FBA3E0FAA3E0F9EF121460
:106C47002C900A40E0FCA3E0FDA3E0FEA3E0FFC018
:106C570007900A3FE0FBE4FAF9F8D00712A51F9066
:106C67000A40121853900A49E004F0900A40E0FCE9
:106C7700A3E0FDA3E0FEA3E0FFEC4D4E4F7003023F
:106C87006D3C900A3CE475F0011214FD8088900A6F
:106C970037E0FCA3E0FDA3E0FEA3E0FF900A441267
:106CA7001853900A3FE0FBE4FAF9F8900A44E0FC35
:106CB700A3E0FDA3E0FEA3E0FF121663AF03900A73
:106CC70048EFF0740AD39F5006E02437F08007900E
:106CD7000A48E02430F0900A48E0FF900A3BE0FBC6
:106CE700A3E0FAA3E0F9EF12142C900A44E0FCA306
:106CF700E0FDA3E0FEA3E0FFC007900A3FE0FBE44E
:106D0700FAF9F8D007121663900A44121853900A3A
:106D170049E004F0900A44E0FCA3E0FDA3E0FEA3F1
:106D2700E0FFEC4D4E4F600D900A3CE475F0011208
:0A6D370014FD026CA9900A49E0FF68
:016D4100222F
:108249009008FAEFF07B017A0879D5E0FFE4FCFDAC
:01825900FE26
:0F825A00900A9BEBF0A3EAF0A3E9F0A3121853EC
:10826900900AA212185F00000000E47B02FAF9F8F4
:10827900900A9EE0FCA3E0FDA3E0FEA3E0FF121636
:1082890063900AA2E0F8A3E0F9A3E0FAA3E0FBC334
:108299001217194003028341900A9EA3A3E0FEA38B
:1082A900E024FFFBEE34FFFAA3A3A3E0FEA3E0FF63
:1082B900C3EB9FFDEA9EFC900A9BE0FBA3E0FAA3B7
:1082C900E0F98D828C831213FF900AA6F08F828EBB
:1082D900831213FFFFC007900A9EA3A3E0FEA3E049
:1082E90024FFFBEE34FFFAA3A3A3E0FEA3E0FDAC59
:1082F90006C3EB9DFFEA9CFE900A9BE0FBA3E0FA14
:108309008F828E83D0E012143E900AA6E0FFEF8D93
:10831900828C8312143E900AA2E0FCA3E0FDA3E044
:10832900FEA3E02401FFE43EFEE43DFDE43CFC90B5
:088339000AA21218530282731C
:018341002219
:0B3DD90090089FEBF0A3EAF0A3E9F0D4
:103DE4009008CD12185F000000009008D17401F013
:103DF400A37408F0A374A5F09008A2E0FBA3E0FA72
:0C3E0400A3E0F91213E6FF700302435F15
:103E10009008D4F06425600302430B9008A2A3E449
:103E200075F0011214FDA9F0FA1213E61218EE4211
:103E3000D7253EDE4641B1583E57633E73643EDEB1
:103E4000663E736941366F427E7042057340B075BD
:073E500041B178000043526C
:103E57009008D1E0FBA3E475F004121513A9F0FA5A
:093E670012173D9008D5EFF0E0C0
:033E7000024319F1
:103E73009008D1E0FBA3E475F004121513A9F0FA3E
:103E830012173D9008F61218539008F6E0FCA3E0D1
:103E9300FDA3E0FEA3E0FF7B017A0879D5900A3EFB
:103EA3007401F0A3740AF0126BC69008FAEFF09055
:103EB30008F6E0FCA3A3A3EC335014A3E024D5F548
:103EC30082E43408F583742DF09008FAE004F07B63
:083ED300017A0879D59008FA84
:033EDB000240F4AE
:103EDE009008D1E0FBA3E475F004121513A9F0FAD3
:103EEE0012173D9008F61218539008F6E0FCA3E066
:103EFE00FDA3E0FEA3E0FF1212007B017A0879D544
:103F0E00900A3E7401F0A3740AF0126BC69008FA80
:103F1E00EFF0E4FFFEFDFC9008F6E0F8A3E0F9A355
:103F2E00E0FAA3E0FB12114450169008FAE024D5F3
:103F3E00F582E43408F583742DF09008FAE004F06D
:103F4E007B017A0879D59008FA1282549008FAE02B
:103F5E00FF7E0090089FE0FBA3E0FAA3E0F8AC021E
:103F6E00AD037B017A0879D512139E9008FAE0FF13
:103F7E00FD9008A0E48DF01214FD9008CDE0F8A39A
:103F8E00E0F9A3E0FAA3E0FBE4FCFDFEEB2FFFEE6D
:103F9E003AFEED39FDEC38FC9008CD12185390081E
:103FAE00F6E0FCA3E0FDA3E0FEA3E0FF121200EC9E
:103FBE001211C2A804A905AA06AB079008F6E0FCE8
:103FCE00A3E0FDA3E0FEA3E0FF120EA97B007A247E
:103FDE0079747849120F9E9008F61218539008F6CD
:103FEE00E0FCA3E0FDA3E0FEA3E0FFEC4D4E4F602E
:103FFE00249008F6A3A3A3E01212007B017A08799D
:10400E00D5900A3E7401F0A3740AF0126BC69008A4
:10401E00FAEFF080209008DA7430F09008D9F09022
:10402E0008D8F09008D7F09008D6F09008D5F09008
:10403E0008FA7406F09008FAE0FF7406D39F401554
:10404E0074D52FF582E43408F5837430F09008FAB5
:10405E00E004F080E09008FAE024D5F582E434081C
:10406E00F583742EF09008FAE00412824D9008FA4F
:10407E00E0FF7E0090089FE0FBA3E0FAA3E0F8AC1F
:10408E0002AD037B017A0879D512139E9008CDE01C
:10409E00F8A3E0F9A3E0FAA3E0FB9008FAE0FF0230
:0240AE0041F3DC
:1040B0009008D1E0FBA3E475F004121513A9F0FAFF
:1040C00012173D9008F61218539008F6E0FCA3E092
:1040D000FDA3E0FEA3E0FF7B017A0879D5E4900A16
:1040E0003EF0A3740AF0126BC69008FAEFF07B0161
:1040F0007A0879D51282549008FAE0FF7E00900881
:104100009FE0FBA3E0FAA3E0F8AC02AD037B017AE9
:104110000879D512139E9008FAE0FFFD9008A0E4FC
:104120008DF01214FD9008CDE0F8A3E0F9A3E0FAB9
:03413000A3E0FB0E
:034133000241F353
:104136009008D1E0FBA3E475F004121513A9F0FA78
:1041460012173D9008F61218539008F6E0FCA3E00B
:10415600FDA3E0FEA3E0FF7B017A0879D5E4900A8F
:104166003EF0A37408F0126BC61282499008FAE07A
:10417600FF7E0090089FE0FBA3E0FAA3E0F8AC0204
:10418600AD037B017A0879D512139E9008FAE0FFF9
:10419600FD9008A0E48DF01214FD9008CDE0F8A380
:0841A600E0F9A3E0FAA3E0FB3D
:0341AE000241F3D8
:1041B100126B901282499008FAE0FF7E0090089FEE
:1041C100E0FBA3E0FAA3E0F8AC02AD037B017A08BF
:1041D10079D512139E9008FAE0FFFD9008A0E48DB6
:1041E100F01214FD9008CDE0F8A3E0F9A3E0FAA3E2
:1041F100E0FBE4FCFDFEEB2FFFEE3AFEED39FDECBA
:014201003884
:0342020002434B29
:104205009008D1E0FBA3E475F003121513A9F0FAA9
:104215001218CE9008D5EBF0A3EAF0A3E9F09008C8
:10422500D5E0FBA3E0FAA3E0F91213E6700302431D
:10423500521213E6FF90089FE0FBA3E0FAA3E0F912
:10424500EF12142C9008A0E475F0011214FD9008EB
:10425500CDE0FCA3E0FDA3E0FEA3E02401FFE43EE6
:10426500FEE43DFDE43CFC9008CD1218539008D6C1
:09427500E475F0011214FD80A5AE
:10427E00126B909008FAEFF07B017A0879D57F08DF
:10428E007E007D007C0012825A90089FE0FBA3E026
:10429E00FAA3E0F8AC02AD037B017A0879D57E0073
:1042AE007F0812139E9008A0E475F0081214FD907A
:1042BE0008CDE0FCA3E0FDA3E0FEA3E02408FFE4AC
:0742CE003EFEE43DFDE43C6F
:1042D500807490089FE0FBA3E0FAA3E0F97425122F
:1042E500142C9008A0E475F0011214FD9008CDE09F
:1042F500FCA3E0FDA3E0FEA3E02401FFE43EFEE411
:104305003DFDE43C80409008A2E0FBA3E0FAA3E079
:10431500F91213E6FF90089FE0FBA3E0FAA3E0F98A
:10432500EF12142C9008A0E475F0011214FD90080A
:10433500CDE0FCA3E0FDA3E0FEA3E02401FFE43E05
:10434500FEE43DFDE43CFC9008CD1218539008A313
:07435500E475F0011214FDF4
:10435C00023DFC9008CDE0FCA3E0FDA3E0FEA3E051
:01436C00FF51
:01436D00222D
:0C32B400410BEE00410BEF00410BF0005D
:0300230002A1C374
:0DA1C300C0E0C083C082C0D075D000C007CE
:10A1D000E59830E1085398FD90076FE4F0E598307A
:10A1E000E0205398FEAF99EFB47F12900BEDE0FFA3
:10A1F00004F0EFD39414400A75C7608005900BED0E
:02A20000E4F088
:0BA20200D007D0D0D082D083D0E03253
:0300430002AC27E5
:10AC2700C0E0C083C082E59A30E108539AFD9007DF
:10AC370070E4F0E59A30E003539AFED082D083D0D7
:02AC4700E032F9
:03008B0002AC497B
:10AC4900C0E0C083C082E5AC30E10853ACFD900799
:10AC590071E4F0E5AC30E00353ACFED082D083D090
:02AC6900E032D7
:0300930002AC6B51
:10AC6B00C0E0C083C082E58430E1085384FD9007C7
:10AC7B0072E4F0E58430E0035384FED082D083D0BD
:02AC8B00E032B5
:03003B00029B50D5
:109B5000C0E0C0F0C083C082C0D075D000C000C0DB
:109B600001C002C003C004C005C006C00730D81140
:109B700053D8FEE4FF1291EF12A7299003DE74017F
:109B8000F030D90853D8FD7F011291EF30DA085335
:109B9000D8FB7F021291EF30DB0353D8F7D007D008
:109BA00006D005D004D003D002D001D000D0D0D050
:089BB00082D083D0F0D0E03236
:030003000200599F
:010059003274
:0300130002005A8E
:01005A003273
:030053000200891F
:010089003244
:03005B0002008A16
:01008A003243
:0300830002008EEA
:01008E00323F
:03009B000296CCFE
:1096CC00C0E0C0F0C083C082C0D075D000C000C064
:0D96DC0001C002C003C004C005C006C007E5
:1096E900900BEEE004F0A3E004F0A3E004F0900690
:1096F9000D7401F0900BEEE0B40507E4F0900671EB
:1097090004F0900BEFE0B43207E4F090067C04F02B
:10971900900BF0E0B46405E4F012B086B2CA124CC2
:04972900CF53EFFD2E
:10972D00D007D006D005D004D003D002D001D00090
:0B973D00D0D0D082D083D0F0D0E0323A
:10482200120056129C8112590112008690093F749F
:1048320032F012383C900950E0F8A3E0F9A3E0FA14
:10484200A3E0FB900958E0FCA3E0FDA3E0FEA3E097
:10485200FF120EA97B007A80796D7845120F9EC0F7
:1048620004C005C006C007900958E0FCA3E0FDA300
:10487200E0FEA3E0FF900950E0F8A3E0F9A3E0FA1C
:10488200A3E0FB120EADA804A905AA06AB07D00748
:10489200D006D005D0041210A7C004C005C006C0BF
:1048A2000790093FE0FC1211CCD003D002D001D016
:1048B20000120F9E900960121853900960E0FCA349
:1048C200E0FDA3E0FEA3E0FF121200C004C005C099
:1048D20006C00790093FE0FBFF3395E0FEC3E49F6B
:1048E200FFE49EFE3395E0FDFC9007F2121853AFF1
:1048F20003EF3395E0FEFDFC9007F6121853D00744
:10490200D006D005D004129C1EEC1211C290096090
:10491200121853900966E0FCA3E0FDEC1211C79057
:104922000950E0F8A3E0F9A3E0FAA3E0FB12114476
:104932006076407490093CE0FCA3E0FDEC1211C7E4
:10494200900958E0F8A3E0F9A3E0FAA3E0FB121102
:10495200446055405390094CE0FCA3E0FDEC121179
:10496200C7900940E0F8A3E0F9A3E0FAA3E0FB1244
:1049720011446034403290094EE0FCA3E0FDEC1299
:1049820011C7900944E0F8A3E0F9A3E0FAA3E0FB21
:104992001211446013401190060CE0700B9005FF59
:1049A20004F090067DE004F09005FFE07003024AF7
:1049B200BB90067DE0C3648094835003024ABBE44B
:1049C2007F1EFEFDFC90060EE0F8A3E0F9A3E0FADC
:1049D200A3E0FB1217034003024A8374FF7FE2FE47
:1049E200FDFC90060EE0F8A3A3A3E0121703500308
:1049F200024A83900940E0F8A3E0F9A3E0FAA3E0B9
:104A0200FB900944E0FCA3E0FDA3E0FEA3E0FF125B
:104A12000EA97B007A80796D7845120F9EC004C082
:104A220005C006C007900944E0FCA3E0FDA3E0FE38
:104A3200A3E0FF900940E0F8A3E0F9A3E0FAA3E0C5
:104A4200FB120EADA804A905AA06AB07D007D00633
:104A5200D005D0041210A7C004C005C006C007903C
:104A6200093FE0FC1211CCD003D002D001D00012D9
:104A72000F9E900960121853900908E4F0A3740481
:104A8200F07F987EFE7DFF7CFF90060EE0F8A3E0AB
:104A9200F9A3E0FAA3E0FBC31217034016E47F6810
:104AA2007E01FDFC90060EE0F8A3A3A3E0D312174B
:104AB20003400690060C7401F090060CE0700302AD
:104AC2004BFAC2C4E490067DF09005FFF09005DB3E
:104AD20012185F0000000090060E12185F0000001E
:104AE200007FCD7ECC7D4C7C3F900940E0F8A3E076
:104AF200F9A3E0FAA3E0FB120F9EA804A905AA06F7
:104B0200AB07900950E0FCA3E0FDA3E0FEA3E0FFA9
:104B1200120EA9C004C005C006C0077FCD7ECC7DA1
:104B22004C7C3F900944E0F8A3E0F9A3E0FAA3E04B
:104B3200FB120F9EA804A905AA06AB07900958E02C
:104B4200FCA3E0FDA3E0FEA3E0FF120EA9D003D078
:104B520002D001D000120EA97B007A80796D7845CF
:104B6200120F9EC004C005C006C007900958E0FCA1
:104B7200A3E0FDA3E0FEA3E0FF900950E0F8A3E06C
:104B8200F9A3E0FAA3E0FB120EADA804A905AA0658
:104B9200AB07D007D006D005D0041210A7C004C0BE
:104BA20005C006C00790093FE0FC1211CCD003D02B
:104BB20002D001D000120F9E900960121853900982
:104BC20064E0FEA3E0FF7C007D64121460EE339586
:104BD200E0FDFC90069EE0F8A3E0F9A3E0FAA3E072
:104BE200FBD31217034011D2C4E490060CF09006D6
:104BF2009E12185F00000000900909E0C4F8540FEB
:104C0200C868FF900908E0C454F048FE741F2FF9E9
:104C120074053EFA9007D77401F0A3EAF0A3E9F015
:104C2200900960E0FCA3E0FDA3E0FEA3E0FF121206
:104C3200009007DA1218539007DE12185F00000086
:104C4200007B017A0579AF125C0490067212185348
:104C5200E4FFFE7D207C41900950E0F8A3E0F9A337
:104C6200E0FAA3E0FB12114460025023E4FFFE7D50
:104C7200207C41900958E0F8A3E0F9A3E0FAA3E010
:104C8200FB12114460025007E490090AF08006907A
:104C9200090A7401F0E47F207E4EFDFC90068AE052
:104CA200F8A3E0F9A3E0FAA3E0FBD312170340084C
:104CB200A2C4E433900903F0900969E0600302485A
:0D4CC2002E12B01B128ED21295C002482E89
:1032C0004405DB0000000044060E00000000440638
:1032D0009E0000000044068A000000004405E30050
:1032E0000000004405D3000000004406A2000000D6
:1032F000004405D7000000004405DF000000004442
:10330000064E0000000044069A0000000044067EBD
:10331000000000004406720000000044068243489A
:1033200000004406864448000041067D004105FF38
:053330000041060C0045
:104CCF0090060DE07003024FB4E4F07B019007F5FE
:104CDF0004F0A37406F0A37476F07A06796B127B56
:104CEF00AE12436E9005FFE060529005DBE0FCA32F
:104CFF00E0FDA3E0FEA3E0FFEC1211C2900626E058
:104D0F00F8A3E0F9A3E0FAA3E0FB120EAD12120034
:104D1F009005DB1218539005DBE0FCA3E0FDA3E048
:104D2F00FEA3E0FFEC1211C27B207A2A790D783BAB
:104D3F00120F9E12120090060E1218539005DFE00C
:104D4F00F8A3E0F9A3E0FAA3E0FBC000C001C002A2
:104D5F00C0039007777401F0A37404F0A374FFF0FD
:104D6F00E4FFFE7D207C41900622E0F8A3E0F9A34A
:104D7F00E0FAA3E0FB120F9E12120090077A1218AE
:104D8F0053900616E0FCA3E0FDA3E0FEA3E0FF9026
:104D9F00077E1218537B017A05798F127211D00397
:104DAF00D002D001D000EB2FFFEA3EFEE93DFDE837
:104DBF003CFC9005DF12185390078012185FFFFF1D
:104DCF00FC4A90078412185F000003B69005DF12AB
:104DDF009AE29005DF12185390093EE07003024EDD
:104DEF00739007777401F0A37405F0A3747FF0E458
:104DFF00FFFE7DC87C42900626E0F8A3E0F9A3E011
:104E0F00FAA3E0FB120F9E12120090077A121853AA
:104E1F009006A2E0FCA3E0FDA3E0FEA3E0FF900656
:104E2F0072E0F8A3E0F9A3E0FAA3E0FB1215D89023
:104E3F00077E1218537B017A0479EF125E9F90065A
:104E4F009A12185390078012185FFFFFFB509007BC
:104E5F008412185F000004B090069A129AE290062E
:104E6F009A12185390069AE0FCA3E0FDA3E0FEA36C
:104E7F00E0FFEC1211C27BCD7ACC794C783F120F48
:104E8F009EC004C005C006C00790067EE0FCA3E0EC
:104E9F00FDA3E0FEA3E0FFEC1211C27BCD7ACC792B
:104EAF004C783E120F9ED003D002D001D000120ECC
:104EBF00AD12120090067E12185390067EE0F8A3F2
:104ECF00E0F9A3E0FAA3E0FB9005DFE0FCA3E0FD2F
:104EDF00A3E0FEA3E0C39BFFEE9AFEED99FDEC98D5
:104EEF00FC90090412185390067EE0FCA3E0FDA38A
:104EFF00E0FEA3E0FF9005DFE0F8A3E0F9A3E0FAFE
:104F0F00A3E02FFFEA3EFEE93DFDE83CFC900937A8
