:0726FE00440B630000000023
:105B860043BA8078FBE6FFAD9FC3ED9FFFE4940028
:105B9600FE7CD27DF0121908E42FFFEE3436FEEDBE
:105BA600346EFDEC3401FC90074C12184790074CFC
:105BB600E0FCA3E0FDA3E0FEA3E0FFC00790FE012A
:105BC600E0FBE4FAF9F8D00712166390074C1218B6
:105BD600477FC07EF67D577C0090074CE0F8A3E037
:105BE600F9A3E0FAA3E0FBC312171950097F007E60
:105BF600607D547C00227FC07E267D827C009007DB
:105C06004CE0F8A3E0F9A3E0FAA3E0FBC3121719EE
:105C160050097F807E8D7D5B7C00227F807EED7DBE
:105C2600AF7C0090074CE0F8A3E0F9A3E0FAA3E00C
:105C3600FBC312171950097F007EC07DA87C002285
:105C46007F807E2D7DE87C0090074CE0F8A3E0F98C
:105C5600A3E0FAA3E0FBC312171950097F007E1BCD
:105C66007DB77C00227F807E367D257C0190074CA7
:105C7600E0F8A3E0F9A3E0FAA3E0FBC3121719507A
:105C8600097F007E407D197C01227F807E567D4102
:105C96007C0190074CE0F8A3E0F9A3E0FAA3E0FB4F
:105CA600C312171950097F007E2D7D317C01227F9A
:105CB600007EDB7D5F7C0190074CE0F8A3E0F9A352
:105CC600E0FAA3E0FBC312171950097F007E807D1E
:105CD600517C01227F607E197D857C0190074CE016
:105CE600F8A3E0F9A3E0FAA3E0FBC31217195009E1
:105CF6007F007E367D6E7C01227F207EE07DB27C39
:105D06000190074CE0F8A3E0F9A3E0FAA3E0FBC397
:105D160012171950097FC07EFC7D9B7C01227FE013
:105D26007EA67DE07C0190074CE0F8A3E0F9A3E0B5
:105D3600FAA3E0FBC312171950097F807EC37DC901
:105D46007C01227F607E2B7DFF7C0190074CE0F872
:105D5600A3E0F9A3E0FAA3E0FBC312171950097FE9
:105D6600007E407DFA7C01227FC07E0E7D167C027D
:015D7600220A
:108F9700125B86900B63121847E4F594F593F592EC
:108FA700F591F596F595F5B2F5B1F5B4F5B3F5CAC2
:108FB700F5C9F5CCF5CBF5E2F5E1F5D8F5D9F5DE50
:108FC700F58EF598F59AF5ACF584F5A2F5BAF5AFF7
:108FD700F589F5E9F5F9129D6890075312185300C2
:108FE70001C2009007577402F07B01E4FDFF025FA6
:018FF7002950
:10A2C900900B96EFF0FDE4FF129127900B96E0FFBB
:01A2D9002262
:03005600C2AF2214
:03008600D2AF22D4
:107F8A00900AB9EFF014601E14602F1460402403A5
:107F9A007051E4FD7F131249FAE4FD7F141249FA85
:107FAA00E4FD7F15803AE4FD7F231249FAE4FD7F60
:107FBA00241249FAE4FD7F258026E4FD7F771249E1
:107FCA00FAE4FD7F761249FAE4FD7F758012E4FD3A
:107FDA007F341249FAE4FD7F331249FAE4FD7F3215
:107FEA001249FA53A2F3900AB9E014600A14600C19
:107FFA0014600E2403800D43A204800843A2088063
:10800A000343A20C53CEF3900ABDE024FE600C1485
:10801A00600E2402700D43CE04800843CE0880030C
:10802A0043CE0C900ABFE042CE900ABEE0700643EF
:09803A00CE8043CE1043CE40225B
:0D0006008FCFE5CD30E7FB75CDC0AFCF2229
:107AAA00900B67EFF014603914605F147003027B67
:107ABA003D24036003027B67E4FD7F131249FAE465
:107ACA00FD7F141249FAE4FD7F151249FA7D017F00
:107ADA00131291CCE4FD7F141291CC7D017F1580A5
:107AEA0079E4FD7F231249FAE4FD7F241249FAE47E
:107AFA00FD7F251249FA7D017F231291CCE4FD7F97
:107B0A00241291CC7D017F258050E4FD7F771249B4
:107B1A00FAE4FD7F761249FAE4FD7F751249FA7D8F
:107B2A00017F771291CCE4FD7F761291CC7D017FA3
:107B3A00758027E4FD7F341249FAE4FD7F33124948
:107B4A00FAE4FD7F321249FA7D017F341291CCE4C6
:107B5A00FD7F331291CC7D017F321291CC53A2F377
:107B6A00900B67E014600914600A14600B24032266
:0C7B7A0043A2042243A2082243A20C22D2
:10A0E70053CEF7EF24FE600B14600C2402700B4371
:0BA0F700CE042243CE082243CE0C22F0
:10A23300EF1FAA0670011E4A60087D091DED60F03C
:02A2430080FA9F
:01A2450022F6
:049B190090FE81F049
:109B1D00E4900B88F0A3F0FC90FE82E020E61E7F1F
:109B2D00017E0012A233900B88E475F0011215131B
:109B3D00FEC3E5F0941EEE940040DD7C0190FE82A4
:069B4D00E054BFF0AF047C
:019B530022EF
:0EA20B00EFF0A3EDF0A3EBF0A3EAF0A3E9F06F
:05A219007401129B1905
:01A21E00221D
:04A31B00E025E0FF5A
:0AA31F0090FE86EFF07402129B1905
:01A329002211
:09A3660090FE817403F0129B1DAE
:01A36F0022CB
:0FA32A0090FE817404F0129B1D90FE87E0FF22CD
:0FA01E00900AE5E0FBA3E0FAA3E0F9EF12142C9F
:0EA02D0090FE82E4F090FE817405F0129B1DFF
:01A03B002202
:0FA3390090FE827401F090FE817405F0029B1D6E
:09A3700090FE817406F0129B1DA1
:01A3790022C1
:1094EE0043BA8053BACFEF14600A14600C14600EA6
:1094FE002403800D43BA10800843BA20800343BA78
:10950E003090FE80E04440F0E04480F0C083C082A2
:10951E00E0FB900AC3A3A3A3E0FFEB4FD082D0835E
:0A952E00F090FE82E4F053BA7F22B1
:10917300900B97EFF0A90512A219EF60037F01226C
:10918300900B9712A31BEF60037F012212A366EFDC
:1091930060037F0122AF0112A31FEF60037F01224F
:1091A30012A366EF60037F0122AF0312A31FEF60D8
:1091B300037F012212A366EF60037F012212A370D3
:0991C300EF60037F01227F00220E
:108DF200900B4F12A20BEF60037F0122900B4F12D8
:108E0200A31BEF60037F012212A366EF60037F01C1
:108E120022900B50E0FF12A31FEF60037F0122128A
:108E2200A366EF60037F0122900B4FE025E044012F
:108E3200FF12A31FEF60037F012212A366EF6003FC
:108E42007F012212A32A900B5112A021EF60037F0F
:0E8E5200012212A370EF60037F01227F002235
:10871800900AE312A20BEF60037F0122900AE31292
:10872800A31BEF60037F012212A366EF60037F01A2
:1087380022900AE4E0FF12A31FEF60037F012212D8
:10874800A366EF60037F0122900AE3E025E044017D
:10875800FF12A31FEF60037F012212A366EF6003DD
:108768007F0122900AE8E014F0601812A32A12A0F0
:108778001EEF60037F0122900AE6E475F0011214EF
:10878800FD80E012A32A12A01EEF60037F012212CF
:0B879800A370EF60037F01227F00222E
:10005E0043BA8053BACFEF14600A14600C14600ECA
:10006E002403800D43BA10800843BA20800343BA9C
:05007E003053BA7F229F
:0B5F2900900750EFF0A3EDF0A3EBF0A9
:105F3400A3E0F8A3E0F9A3E0FAA3E0FB900B63E08D
:105F4400FCA3E0FDA3E0FEA3E0FF121663E47B04E0
:105F5400FAF9F8121663C3E49FFFE49EAD07FC90C0
:105F64000750E0147003025FF514700302603014EC
:105F7400700302607D240360030260CF900757E042
:105F8400FB640170144398508D8BECF58D438E4067
:105F9400D28EE490072EF0800FEBB4020B4398509E
:105FA4008DD7ECF5D6438E1553A23F900751E0FFF1
:105FB4007007A3E0B401028030EFB4020C900752E2
:105FC400E0B4030543A2408020900751E0B4040AE2
:105FD400A3E0B4050543A280800F900751E0B40606
:105FE40008A3E0B4070343A2C0E490072EF0D2ACA8
:105FF40022900757E0B4020B439A108DD7ECF5D6E4
:10600400438E1453BAFE900751E0FFB40807A3E08F
:10601400B40902800EEFB40A0A900752E0B40B03ED
:1060240043BA0143AF01E490072FF022900757E0F1
:10603400FBB4020D439A108DD7ECF5D6438E148031
:106044000FEBB4030B43AC508DD5ECF5D443D10A1C
:1060540053BAFD900751E0FFB40C07A3E0B40D025E
:10606400800EEFB40E0A900752E0B40F0343BA0255
:1060740043AF08E4900730F022900757E0FBB402E6
:106084000D4384108DD7ECF5D6438E14800FEBB4FA
:10609400040B4384508DD3ECF5D243D1A053BAFB07
:1060A400900751E0FFB41007A3E0B411028014EF8D
:1060B400B41210900752E0B41309E4F5CA75C90488
:0B60C40043BA0443AF10E4900731F032
:0160CF0022AE
:0F911800A3E475F001121513A9F0FA1213E6FD86
:10912700EF1460191460251460312403703D900713
:109137002EE070FA90072E7401F08D992290072F78
:10914700E070FA90072F7401F08D9B22900730E0B2
:1091570070FA9007307401F08DAD22900731E070FE
:0C916700FA9007317401F0AF058F8522EB
:109DBA00900AEAEBF0A3EAF0A3E9F0AE07900AED05
:109DCA0074FFF5F012151345F0600CAF06900AEA1D
:089DDA00E0FB12911880E62263
:109DE200900B73EBF0A3EAF0A3E9F0AE07900B73CC
:109DF200E0FBA3E0FAA3E0F91213E6600AAF0690D3
:089E02000B7312911880E62297
:10977D0043BC80EF131313541FFEBE0118EF5407A3
:10978D00FC7401A804088002C333D8FCFCF4529485
:10979D00EC42938019EE7016EF5407FE7401A80683
:1097AD00088002C333D8FCFEF45292EE4291ED5480
:0797BD000F42DE43DE202213
:029C9300A90521
:109C950053BCF0EF42BC43BC40E5BC30E5FB53BCD4
:109CA500DFAFBDEFFEADBEEDFFAD01A80508800538
:089CB500CEC313CE13D8F9FF52
:019CBD002284
:1098D800EF14601814602014602614602C2404709F
:1098E80030E4F58AF58C438904D28C22E4F58BF5B3
:1098F8008D438940D28E22E4F5D7F5D6438E1822BF
:10990800E4F5D5F5D443D10C22E4F5D3F5D243D10F
:02991800C0226B
:1097C400EF14601714601E14602514602C240470B8
:1097D40030AF8CEFFCAF8AEFFD8026AF8DEFFCAF8E
:1097E4008BEFFD801CAFD6EFFCAFD7EFFD8012AF3F
:1097F400D4EFFCAFD5EFFD8008AFD2EFFCAFD3EFD1
:05980400FDAF05AE04FC
:01980900223C
:10958200EF14601714601E146027146030240470F6
:1095920037C28CE4F58CF58AD28C22C28EE4F58D2A
:1095A200F58BD28E22538EEFE4F5D6F5D7438E108B
:1095B2002253D1F7E4F5D4F5D543D1082253D17F14
:0995C200E4F5D2F5D343D1802277
:05893E00900750EFF06E
:108943007E037FE81214727C007D0C121460AB0767
:10895300AA06E4F9F8900B63E0FCA3E0FDA3E0FEB4
:10896300A3E0FF121663C3E49FFFE49EFE9007504B
:10897300E0FD700A8F8AEEF58CD28CD2A922EDB479
:10898300010A8F8BEEF58DD28ED2AB22900750E089
:10899300FDB4020C8FD7EEF5D6438E1043AF0422FD
:1089A300EDB4030C8FD5EEF5D443D10843AF2022A9
:1089B300900750E0B4040B8FD3EEF5D243D180433C
:0289C300AF40C3
:0189C500228F
:109BFE00EF5403FE700890075A7420F08014BE01D3
:109C0E000890075A7410F08009BE020690075A7425
:109C1E0060F090075AE0FEEFC4540FFFEE4FFFF0D6
:059C2E007D010249FA6E
:05717300900750EFF051
:10717800E4900759F0129BFE43BA80900750E0FF55
:1071880054F02404FDE434FF8D82F583E054E7F0E5
:10719800E0FEEF540333333354F8FFEE4FF090071B
:1071A80051E0F8A3E0F9A3E0FAA3E0FB900B63E059
:1071B800FCA3E0FDA3E0FEA3E0FF121663780F1224
:1071C800172A900759EFF0900751E0F8A3E0F9A3C8
:1071D800E0FAA3E0FB900B63E0FCA3E0FDA3E0FE74
:1071E800A3E0FF121663C006C007900759E0240108
:1071F800FFE433AB07FAE4F9F8D007D006121663B8
:10720800900757EEF0A3EFF0900755E0FCA3E0FDE0
:10721800E41211C77B007A40791C78461210A7C087
:1072280004C005C006C007900757E0FCA3E0FDE4D2
:107238001211C7D003D002D001D000120F9E121233
:1072480000900759E090FFF2F0900757E0FDA3E0A7
:1072580090FFF0CDF0A3EDF0900750E054F0FD7CE6
:10726800002400FBEC34FF8B82F583EEF0A3EFF0F3
:10727800ED2404FFEC34FF8F82F583E04480F05363
:05728800BA7F75FE80D5
:01728D0022DE
:0592240090073AEFF095
:1092290043BA80AE04AF05E41211C77B007A4079D6
:109239001C78461210A7C004C005C006C00790FFDD
:10924900F0E0FCA3E0FDE41211C7D003D002D00185
:10925900D000120F9E12120090073AE054F0240039
:10926900FDE434FF8D82F583EEF0A3EFF053BA7F6E
:0192790022D2
:0689C600900B541218474B
:1089CC00E4900B58F043BA80900B54E0F8A3E0F914
:1089DC00A3E0FAA3E0FB900B63E0FCA3E0FDA3E0B3
:1089EC00FEA3E0FF121663780F12172A900B58EFB4
:1089FC00F0900B54E0F8A3E0F9A3E0FAA3E0FB90AD
:108A0C000B63E0FCA3E0FDA3E0FEA3E0FF12166302
:108A1C00C006C007900B58E02401FFE433AB07FA03
:108A2C00E4F9F8D007D006121663900B58E090FFCB
:0D8A3C00F2F090FFF0EEF0A3EFF053BA7FE0
:018A4900220A
:102705004809D500000000000000004809CD000080
:06271500000000000000BE
:10905900E4F5D875D906EF64017054EDB40A0050EF
:109069004E909071F828287302908F029093029085
:109079009702909B02909F0290A30290A70290AB47
:109089000290AF0290B5E4F5DA2275DA422275DA78
:10909900632275DA532275DA732275DA202275DABA
:1090A900102275DA302275DA49D2DE2275DA4C22BD
:10A2DA00EFB40108AFFAEFFCAFEAEFFDAF05AE0449
:01A2EA002251
:0AA37A00EFB40105E4F5F9F5E9225E
:056CAB00900B76EFF0F4
:106CB000C2DEAFF9EFFFABE9EBA3CFF0A3EFF090AB
:106CC0000B76E070617E037FE81214727C007D0C0D
:106CD000121460AB07AA06E4F9F8900B63E0FCA37A
:106CE000E0FDA3E0FEA3E0FF121663AC06AD079043
:106CF00009CDECF0A3EDF075DA4985E9EA85F9FAFA
:106D00009009CDE0FEA3E0FF9009D6E02FFF9009A7
:106D1000D5E03EFE900B78E02FFF900B77E03E90A1
:106D200009D5F0A3EFF0900B76E0640170617E036B
:106D30007FE81214727C007D0C121460AB07AA0667
:106D4000E4F9F8900B63E0FCA3E0FDA3E0FEA3E010
:106D5000FF121663AC06AD079009CFECF0A3EDF07F
:106D600075DB4985E9EB85F9FB9009CFE0FEA3E0EF
:106D7000FF9009D8E02FFF9009D7E03EFE900B78F6
:106D8000E02FFF900B77E03E9009D7F0A3EFF09053
:106D90000B76E0640270557E037FE81214727C006B
:106DA0007D0C121460AB07AA06E4F9F8900B63E0BF
:106DB000FCA3E0FDA3E0FEA3E0FF1216639009D15F
:106DC000EEF0A3EFF075DC4985E9EC85F9FC90095C
:106DD000DAE02FFF9009D9E03EFE900B78E02FFF1C
:0E6DE000900B77E03E9009D9F0A3EFF0D2DEE1
:016DEE002282
:10856C00AD07ED70209009D5E0FEA3E0F5EAEEF53D
:10857C00FA9009CDE0FEA3E0FF9009D6E02FF09031
:10858C0009D5E03EF0EDB401209009D7E0FEA3E060
:10859C00F5EBEEF5FB9009CFE0FEA3E0FF9009D8D8
:1085AC00E02FF09009D7E03EF0EDB402209009D90D
:1085BC00E0FEA3E0F5ECEEF5FC9009D1E0FEA3E0C3
:1085CC00FF9009DAE02FF09009D9E03EF0EDB4030A
:1085DC00209009DBE0FEA3E0F5EDEEF5FD9009D36C
:1085EC00E0FEA3E0FF9009DCE02FF09009DBE03E19
:0285FC00F0226B
:109CBE00EF7007ED24FF9288D2A8EFB40107ED24D0
:109CCE00FF928AD2AAEFB40203438F10EFB40303BC
:0B9CDE00438F20EFB40403438F4022AB
:05271B00420B8A0000E2
:109D6800E47BE07A2EF9F8900B63E0FCA3E0FDA316
:109D7800E0FEA3E0FF121663900B8AEEF0A3EFF06B
:099D880075DD48E4F5D9D2DE22B4
:10A03C00AFF9EFFEADE9EDFF900B8BE02FFF900B2E
:0CA04C008AE03E8FEDF5FD30DBFDC2DB4D
:01A0580022E5
:10A21F00AB07AA06EB1BAE0270011A4E600512A027
:04A22F003C80F1225C
:1091CC00EDB40126EFC4540F2410FDE434FE8D825F
:1091DC00F583C083C082E0FEEF540FFF7401A80733
:1091EC00088002C333D8FC4E8028ED702AEFC4549B
:1091FC000F2410FDE434FE8D82F583C083C082E021
:10920C00FEEF540FFF7401A807088002C333D8FC8B
:08921C00F45ED082D083F02241
:1049FA00EF54F0FE7066ED146020146032146047C4
:104A0A0024037058EF540FFC7401A804088002C3F1
:104A1A0033D8FCF4529352948042EF540FFC740141
:104A2A00A804088002C333D8FCFCF45293802AEF0E
:104A3A00540FFC7401A804088002C333D8FCFC425A
:104A4A0093ECF452948015EF540FFC7401A80408F7
:104A5A008002C333D8FCFC4293EC4294EE6410709B
:104A6A0066ED14602014603214604724037058EF16
:104A7A00540FFE7401A806088002C333D8FCF4520E
:104A8A009152928042EF540FFE7401A806088002E8
:104A9A00C333D8FCFEF45291802AEF540FFE7401FE
:104AAA00A806088002C333D8FCFE4291EEF4529263
:104ABA008015EF540FFE7401A806088002C333D88C
:104ACA00FCFE4291EE4292EF54F064207066ED14BF
:104ADA00602014603214604724037058EF540FFEAC
:104AEA007401A806088002C333D8FCF45295529682
:104AFA008042EF540FFE7401A806088002C333D81F
:104B0A00FCFEF45295802AEF540FFE7401A80608A1
:104B1A008002C333D8FCFE4295EEF452968015EF1C
:104B2A00540FFE7401A806088002C333D8FCFE4263
:104B3A0095EE4296EF54F0FE64307066ED146020F4
:104B4A0014603214604724037058EF540FFC740148
:104B5A00A804088002C333D8FCF452B152B280428E
:104B6A00EF540FFC7401A804088002C333D8FCFC7C
:104B7A00F452B1802AEF540FFC7401A80408800291
:104B8A00C333D8FCFC42B1ECF452B28015EF540F97
:104B9A00FC7401A804088002C333D8FCFC42B1ECBF
:104BAA0042B2EE64407066ED146020146032146004
:104BBA004724037058EF540FFE7401A806088002B8
:104BCA00C333D8FCF452B352B48042EF540FFE748C
:104BDA0001A806088002C333D8FCFEF452B3802A27
:104BEA00EF540FFE7401A806088002C333D8FCFEF6
:104BFA0042B3EEF452B48015EF540FFE7401A806C6
:104C0A00088002C333D8FCFE42B3EE42B4EF54F03C
:104C1A0064507066ED1460201460321460472403F7
:104C2A007058EF540FFE7401A806088002C333D8E7
:104C3A00FCF452C952CA8042EF540FFE7401A8060E
:104C4A00088002C333D8FCFEF452C9802AEF540FFD
:104C5A00FE7401A806088002C333D8FCFE42C9EEDE
:104C6A00F452CA8015EF540FFE7401A80608800298
:104C7A00C333D8FCFE42C9EE42CAEF54F0FE646068
:104C8A007066ED1460201460321460472403705873
:104C9A00EF540FFC7401A804088002C333D8FCF453
:104CAA0052CB52CC8042EF540FFC7401A804088006
:104CBA0002C333D8FCFCF452CB802AEF540FFC74A5
:104CCA0001A804088002C333D8FCFC42CBECF4529E
:104CDA00CC8015EF540FFC7401A804088002C3337A
:104CEA00D8FCFC42CBEC42CCEE64707064ED1460EC
:104CFA001F14603114604524037056EF540FFE747C
:104D0A0001A806088002C333D8FCF452E152E22219
:104D1A00EF540FFE7401A806088002C333D8FCFEC4
:104D2A00F452E18029EF540FFE7401A806088002AC
:104D3A00C333D8FCFE42E1EEF452E222EF540FFEF6
:104D4A007401A806088002C333D8FCFE42E1EE4291
:024D5A00E22253
:06A3C00043C7800260D0DB
:04003E0053C77F2203
:0C004600E5C730E0047F0180027F00224B
:1060D00053C7F87F807EC37DFF7CFF900B63E0F8A1
:1060E000A3E0F9A3E0FAA3E0FBC3121719400122D1
:1060F0007F807EC37DFF7CFF900B63E0F8A3E0F917
:10610000A3E0FAA3E0FBD31217195019E4FF7E367F
:10611000FDFC900B63E0F8A3A3A3E0C312171940A2
:106120000443C70122E4FF7E36FDFC900B63E0F8D8
:10613000A3E0F9A3E0FAA3E0FBD31217195019E486
:10614000FF7E2DFDFC900B63E0F8A3A3A3E0C31238
:106150001719400443C70222E4FF7E2DFDFC900B7B
:1061600063E0F8A3E0F9A3E0FAA3E0FBD312171968
:106170005019E4FF7E1BFDFC900B63E0F8A3A3A382
:10618000E0C3121719400443C70322E4FF7E1BFD3E
:10619000FC900B63E0F8A3E0F9A3E0FAA3E0FBD3E3
:1061A000121719501B7F807E8D7DFF7CFF900B6343
:1061B000E0F8A3A3A3E0C3121719400443C70422C5
:1061C0007F807E8D7DFF7CFF900B63E0F8A3E0F97C
:1061D000A3E0FAA3E0FBD3121719501B7FC07EC6C1
:1061E0007DFF7CFF900B63E0F8A3A3A3E0C312172D
:1061F00019400443C705227FC07EC67DFF7CFF9007
:106200000B63E0F8A3E0F9A3E0FAA3E0FBD31217D5
:1062100019501B7F807E847DFF7CFF900B63E0F82C
:10622000A3A3A3E0C3121719400443C706227F802B
:106230007E847DFF7CFF900B63E0F8A3E0F9A3E090
:10624000FAA3E0FBD31217195019E47F407E42FDF8
:10625000FC900B63E0F8A3A3A3E0C312171940035B
:0462600043C7072207
:10980A00900AF1EBF0A3EAF0A3E9F0AD07AC067514
:10981A00C501900AF4E0FF14F0EF60288DC4ECF55E
:10982A00C375C65A75C6A5900AF1E0FBA3E475F0A4
:10983A0001121513A9F0FAE5C212142C0DBD00018C
:05984A000C0080CE229D
:10984F00900AF7EBF0A3EAF0A3E9F0AD07AC0675C9
:10985F00C502900AFAE0FF14F0EF60288DC4ECF512
:10986F00C3900AF7E0FBA3E475F001121513A9F0FA
:10987F00FA1213E6F5C20DBD00010C75C65A75C676
:05988F00A50080CE22BF
:10A2EB0075C5038FC4EEF5C375C65A75C6A5002296
:10A1B300EF1FAC0670011E4C600C00007D2C7C135D
:06A1C300DCFEDDFC80EA79
:01A1C9002273
:10A24600EF1FAA0670011E4A60087D091DED60F029
:02A2560080FA8C
:01A2580022E3
:06A3C6002564002566007D
:0AA38400C2A2C2A1120006D2A2225A
:0AA38E00C2A2D2A1120006D2A22240
:049F1300AD07AC06E4
:109F1700EC900B8CF0A3EFF0C2A2D2A1900B8CE0D7
:0E9F2700FF120006900B8DE0FF120006D2A282
:019F35002209
:108FF800900A81EEF0A3EFF0A3ECF0A3EDF0A3EA62
:10900800F0A3EBF07F2A12A384E4FF12A38E900A48
:1090180081A3E02402FF12A38EE4FF12A38E900A1C
:1090280085A3E02402FF12A38E7F2B12A384E4FF02
:1090380012A38E900A83A3E004FF12A38EE4FF120A
:10904800A38E900A87A3E004FF12A38E7F2C02A3AD
:019058008493
:0894A300900B6BEEF0A3EFF05B
:1094AB00900A87E4F0A3749FF07B7F7A00E4FDFCC5
:1094BB00FFFE128FF8E4900B6DF0E4900B6EF090C2
:1094CB000B6BE0FEA3E0FF129F13900B6EE004F01A
:1094DB00E0C3948040E9900B6DE004F0E0C394A0EE
:0294EB0040D867
:0194ED00225C
:10576C00900ABC7412F0E4A3F0A3F0A3F07B117DBB
:10577C00107F01127F8AC2A07F0A7E0012A21FD264
:10578C00A07F787E0012A21F7F1112A3847F787EE7
:10579C000012A21F7FB112A3847F0112A38E7F2C53
:1057AC0012A38E7F2D12A38E7FB212A3847F0112BF
:1057BC00A38E7F2C12A38E7F2D12A38E7FB312A3E8
:1057CC00847F0112A38E7F2C12A38E7F2D12A38EA9
:1057DC007F0112A38E7F2C12A38E7F2D12A38E7F9E
:1057EC00B412A3847F0712A38E7FC012A3847FA25E
:1057FC0012A38E7F0212A38E7F8412A38E7FC112FE
:10580C00A3847FC512A38E7FC212A3847F0A12A326
:10581C008EE4FF12A38E7FC312A3847F8A12A38E01
:10582C007F2A12A38E7FC412A3847F8A12A38E7F39
:10583C00EE12A38E7FC512A3847F0E12A38E7F3629
:10584C0012A3847E007F00E4701FEF14600E1460BE
:10585C000F146010240370117FC0800AE4FF8006CF
:10586C007FA080027F6012A38E7FE012A3847F0F43
:10587C0012A38E7F1A12A38E7F0F12A38E7F181283
:10588C00A38E7F2F12A38E7F2812A38E7F2012A3AC
:10589C008E7F2212A38E7F1F12A38E7F1B12A38ECC
:1058AC007F2312A38E7F3712A38EE4FF12A38E7F69
:1058BC000712A38E7F0212A38E7F1012A38E7FE19C
:1058CC0012A3847F0F12A38E7F1B12A38E7F0F1245
:1058DC00A38E7F1712A38E7F3312A38E7F2C12A35D
:1058EC008E7F2912A38E7F2E12A38E7F3012A38E51
:1058FC007F3012A38E7F3912A38E7F3F12A38EE4CA
:10590C00FF12A38E7F0712A38E7F0312A38E7F102C
:10591C0012A38E7F2A12A384E4FF12A38E7F02129D
:10592C00A38EE4FF12A38E7F8212A38E7F2B12A371
:10593C0084E4FF12A38E7F0312A38EE4FF12A38EC6
:10594C007F8312A38E7FF012A3847F0112A38E7F1C
:10595C00F612A384E4FF12A38E7F3A12A3847F0570
:0F596C0012A38E7F2912A38474FFFFFE0294A35F
:10991A00900AFBEEF0A3EFF0900AFFEAF0A3EBF057
:10992A00900AFDECF0A3EDF0900AFBE0FAA3E0FB4D
:10993A00FFAE02C007A3E0FFA3E0900A87CFF0A31F
:10994A00EFF0D007128FF8900AFFE0FEA3E0FF02C3
:02995A009F1359
:067ECA00F583E02430FB0B
:107ED000900A89EEF0A3EFF0A3ECF0A3EDF0A3EB92
:017EE000F0B1
:107EE100E4A3F0900A8EE0F9C394104003027F8965
:107EF100E9FF900A8CE02FFD900A8BE03400FC90A2
:107F01000A8AE02407FB900A89E03400FA7E009097
:107F11000A8BE0F8A3E02FFFEE38900A87F0A3EF79
:107F2100F0900A89E0FEA3E0FF128FF8900A8EE03C
:107F3100FF900A8DE075F010A4249EF582E5F034DF
:107F4100FEF583E5822FF582E43583F583E4939092
:107F51000A90F0E4900A8FF0900A90E030E0067FFA
:107F6100007EF8800474FFFFFE129F13900A90E0D8
:107F7100C313F0900A8FE004F0E0C3940840D99055
:087F81000A8EE004F0027EE428
:017F890022D5
:108B3E00900A5DEEF0A3EFF0A3ECF0A3EDF0A3EB43
:078B4E00F0A3EAF0A3E9F037
:108B5500E4A3F0A3F0900A61E0FBA3E0FAA3E0F937
:108B6500A3E0FEA3E0FFF5828E831213FFFB603EB8
:108B7500EF7803C333CE33CED8F9FF900A5EE02FEA
:108B8500FF900A5DE03EFE900A60E0C4F8540FC80D
:108B950068FD900A5FE0C454F048FC127ED0900A4C
:0E8BA50065E004F070AF900A64E004F080A771
:018BB300229F
:107D2E00900A66EEF0A3EFF0A3ECF0A3EDF0A3EB58
:017D3E00F054
:107D3F00C364809480900A69E0C4F8540FC868FD4A
:107D4F00900A68E0C454F048FC900A66E0FEA3E095
:107D5F00FF40077B20127ED0800C7B2D127ED090AF
:107D6F000A6AE0F404F0900A6AE0FF75F0641213F7
:107D7F00C4900A6BF0EF75F00A1213C4FF75F00A86
:107D8F001213C4AFF0900A6CEFF0900A6AE0FF751F
:107D9F00F00A1213C4AFF0900A6DEFF0E4A3F09065
:107DAF000A6EE0FB2401FFE433FEEF7803C333CE0A
:107DBF0033CED8F9FF900A67E02FFF900A66E03EB6
:107DCF00FE900A69E0C4F8540FC868FD900A68E095
:107DDF00C454F048FC746B2BF582E4340A127ECA4B
:0C7DEF00900A6EE004F0E0C3940340B37F
:017DFB002265
:0E8C9F00900A91EEF0A3EFF0A3ECF0A3EDF03D
:108CAD00EB75F06484A3F0EB75F00A8475F00A841B
:108CBD00A3E5F0F0EB75F00A84A3E5F0F0E4A3F082
:108CCD00900A98E0FB75F008A4FF900A92E02FFF40
:108CDD00900A91E035F0FE900A94E0C4F8540FC864
:108CED0068FD900A93E0C454F048FC74952BF5820E
:108CFD00E4340A127ECA900A98E004F0E0C39403AB
:028D0D0040BE66
:018D0F002241
:1073A9009009EDEEF0A3EFF0A3ECF0A3EDF0A3EA62
:0473B900F0A3EBF062
:1073BD00C3EA648094809009F0E0C4F8540FC86863
:1073CD00FD9009EFE0C454F048FC9009EDE0FEA3F8
:1073DD00E0FF501C7B2D127ED09009F1E0FEA3E062
:1073ED00FFC3E49FFFE49E9009F1F0A3EFF0800549
:1073FD007B20127ED09009F1E0FAA3E0FB7C277D83
:10740D0010FFAE021214C7A3EFF07C037DE8AF03AB
:10741D00AE021214C77C007D0A1214C7A3EDF090C2
:10742D0009F1A3E07C007D64FFAE021214C77C005D
:10743D007D0A1214C79009F5EDF07C007D0AAF03AB
:10744D00AE021214C77C007D0A1214C7A3EDF09092
:10745D0009F1E0FEA3E0FF7C007D0A1214C790093C
:10746D00F7EDF0E4A3F09009F8E0FB2401FFE4331D
:10747D00FEEF7803C333CE33CED8F9FF9009EEE09B
:10748D002FFF9009EDE03EFE9009F0E0C4F8540F97
:10749D00C868FD9009EFE0C454F048FC74F32BF577
:1074AD0082E43409127ECA9009F8E004F0E0C39436
:0374BD000540B3D4
:0174C00022A9
:0E804300900A3FEEF0A3EFF0A3ECF0A3EDF0F7
:108051007C277D10AF03AE02121472A3EFF07C03F4
:108061007DE8AF03AE021214727C007D0A12147215
:10807100A3EDF07C007D64AF03AE021214727C00AC
:108081007D0A121472A3EDF07C007D0AAF03AE02EB
:108091001214727C007D0A121472A3EDF0AE02AFCD
:1080A100037C007D0A121472A3EDF0E4A3F0900AA0
:1080B10048E0FB75F008A4FF900A40E02FFF900A0A
:1080C1003FE035F0FE900A42E0C4F8540FC868FD65
:1080D100900A41E0C454F048FC74432BF582E43427
:1080E1000A127ECA900A48E004F0E0C3940540BE3B
:0180F100226C
:0E78D60090093BEEF0A3EFF0A3ECF0A3EDF071
:1078E400900943E0FF740AC39F5003740AF090099F
:1078F40043E004F090093FE0FCA3E0FDA3E0FEA315
:10790400E0FFE4FBFAF9F8D312170340319007B50E
:1079140074FFF0A374A3F0A374C6F090093FE0FCD5
:10792400A3E0FDA3E0FEA3E0FF9007B81218470B05
:107934007A097944123240900966EFF08038900950
:10794400447420F09007B574FFF0A374A3F0A374FB
:10795400C6F090093FE0FCA3E0FDA3E0FEA3E0FF36
:107964009007B81218477B017A0979451232409082
:107974000966EFF0801E900943E0FF900966E0FE7F
:10798400C39F501574442EF582E43409F5837420A2
:10799400F0900966E004F080DD74442FF582E4344D
:1079A40009F583E4F090093BE0FEA3E0FFA3E0FCCB
:0C79B400A3E0FD7B017A097944028B3EC0
:0E6879009008DDEEF0A3EFF0A3ECF0A3EDF03D
:106887009008E6E0FF7406C39F50037406F0900873
:10689700E5E0FF740AC39F5003740AF09008E1E033
:1068A700FCA3E0FDA3E0FEA3E0FFE4FBFAF9F81286
:1068B70011449007B56031402F74FFF0A374A3F023
:1068C700A374C9F09008E1E0FCA3E0FDA3E0FEA3F8
:1068D700E0FF9007B81218477B017A0879E812326F
:1068E700409008E7EFF0803074FFF0A374A3F0A3A3
:1068F70074C9F09008E1E0FCA3E0FDA3E0FEA3E08B
:10690700FF9007B81218477B017A0879E9123240DD
:106917009008E7EFF0E004F09008E7E024F9FD9035
:1069270008E5E0FEC3ED9E1490090AF09008E6E042
:10693700AE052E0490090BF090090AE0D36480F8A5
:106947007480984022A3E0FF3395E0FE74E82FF5AA
:106957008274083EF5837420F090090BE004F090F0
:10696700090AE004F080D19008E1E0FCA3E0FDA370
:10697700E0FEA3E0FFE4FBFAF9F812114490090ADC
:1069870060174015E0FF3395E0FE74E82FF5827439
:10699700083EF583742DF08013E0FF3395E0FE7415
:1069A700E82FF58274083EF5837420F090090BE018
:1069B700FF3395E0FE74E82FF58274083EF583E413
:1069C700F09008DDE0FEA3E0FFA3E0FCA3E0FD7B81
:0869D700017A0879E8028B3E09
:0B728E00900A29EBF0A3EAF0A3E9F05E
:1072990074FFFFFE1294A3E4900A30F0A3F0E49087
:1072A9000A2EF0A3F0900A2EE0FAA3E0FB7C007D01
:1072B90028FFAE02121460C006C007A3E0FEA3E0D7
:1072C900FF121460C006C007AF03AE02121460EFCC
:1072D9002427FBE43EFA900A30E0FEA3E0FF1214F3
:1072E90060EF2427FFE43E900A87F0A3EFF0D00572
:1072F900D004D007D006128FF8E4900A2CF0A3F03E
:10730900900A2DE025E0FF900A2CE033FE900A292F
:10731900E0FBA3E0FAA3E0F98F828E831213FF90BA
:107329000A33F0E92FF9EA3EFA9000011213FF90AF
:107339000A32F0FEA3E0FDEDFF129F13900A2DE043
:1073490004F07006900A2CE004F0C3900A2DE09432
:1073590040900A2CE06480948640A5900A2FE004AE
:10736900F07006900A2EE004F0C3900A2FE094030F
:10737900900A2EE06480948050030272AE900A3124
:10738900E004F07006900A30E004F0C3900A31E09E
:0F7399009404900A30E06480948050030272A73D
:0173A80022C2
:10009E000000000000000000000000000000000052
:1000AE0000000008080808080808000008080000FA
:1000BE000048242412000000000000000000000090
:1000CE000000004848487E2424247E242424000076
:1000DE000000103C5252121C30505052523C101024
:1000EE00000000222515150D2A58545452220000E6
:1000FE000000000C1212120A76252919916E0000CA
:10010E0000060404020000000000000000000000D1
:10011E0000402010100808080808081010204000A1
:10012E000002040808101010101010080804020035
:10013E000000000008086B1C1C6B08080000000083
:10014E000000000000101010FE1010100000000043
:10015E000000000000000000000000000604040281
:10016E0000000000000000007E0000000000000003
:10017E000000000000000000000000000606000065
:10018E00000040202020101008080804040202007D
:10019E00000000182442424242424242241800000B
:1001AE00000000101C10101010101010107C000019
:1001BE000000003C4242424020100804427E0000F3
:1001CE000000003C4242402018204042423C0000C9
:1001DE0000000020303028242422FE2020F80000C9
:1001EE000000007E0202021E22404042221C00003D
:1001FE00000000182402023A4642424244380000EF
:10020E000000007E42202010100808080808000098
:10021E000000003C4242422418244242423C00006C
:10022E000000001C22424242625C40402418000042
:10023E000000000000001818000000001818000050
:10024E000000000000000008000000000008080880
:10025E000000004020100804020408102040000096
:10026E000000000000007E00007E00000000000084
:10027E0000000002040810204020100804020000B4
:10028E000000003C424246201010100018180000DA
:10029E000000001C225A55555555553A423C000057
:1002AE000000000808181414243C224242E7000003
:1002BE000000001F2222221E22424242221F000064
:1002CE000000007C4242010101010142221C00009B
:1002DE000000001F2242424242424242221F0000C0
:1002EE000000003F4212121E12120242423F000054
:1002FE000000003F4212121E1212020202070000FC
:10030E000000003C2222010101712122221C00006A
:10031E00000000E7424242427E42424242E7000073
:10032E000000003E0808080808080808083E0000FB
:10033E000000007C10101010101010101010110F73
:10034E000000007722120A0E0A12122222770000F3
:10035E00000000070202020202020202427F0000B7
:10036E000000007736363636362A2A2A2A6B0000E7
:10037E00000000E346464A4A52525262624700006B
:10038E000000001C2241414141414141221C00001C
:10039E000000003F424242423E02020202070000BB
:1003AE000000001C224141414141414D321C600080
:1003BE000000003F4242423E1212222242C700007B
:1003CE000000007C4242020418204042423E0000DF
:1003DE000000007F4908080808080808081C0000EB
:1003EE00000000E74242424242424242423C00008A
:1003FE00000000E7424222242414141808080000CA
:10040E000000006B2A2A2A2A2A361414141400001B
:10041E00000000E7422424181818242442E70000A4
:10042E00000000772222141408080808081C000097
:10043E000000007E2120101008040442423F0000FC
:10044E00007808080808080808080808080878004E
:10045E000000020404040808081010202020404068
:10046E00001E1010101010101010101010101E0082
:10047E000018240000000000000000000000000032
:10048E0000000000000000007E00000000000000E0
:10049E000006080000000000000000000000000040
:1004AE00000000000000001C22302C22326C0000E4
:1004BE00000000000302021A26424242261A0000E1
:1004CE000000000000000038440202024438000020
:1004DE00000000006040407C4242424262DC00006C
:1004EE00000000000000003C42427E02423C000040
:1004FE00000000003048083E08080808083E0000CA
:10050E00000000000000007C22221C023C42423C03
:10051E00000000000302023A4642424242E7000057
:10052E000000000C0C00000E08080808083E000031
:10053E000000003030000038202020202020221E15
:10054E000000000003020272120A0E12227700004F
:10055E00000000080E08080808080808083E0000F9
:10056E00000000000000007F9292929292B700006D
:10057E00000000000000003B4642424242E70000FD
:10058E00000000000000003C42424242423C00009B
:10059E00000000000000001B26424242261A0207FD
:1005AE00000000000000005864424242645840E0DF
:1005BE0000000000000000774C040404041F00003B
:1005CE00000000000000007C42023C40423E000061
:1005DE00000000000008083E080808084830000027
:1005EE0000000000000000634242424262DC000054
:1005FE0000000000000000772222141408080000FA
:10060E0000000000000000DB91525A2A2424000052
:10061E00000000000000006E241818182476000058
:10062E0000000000000000E7422424181808080605
:10063E00000000000000007E22100808447E00002A
:10064E0000C0202020202020102020202020C000AC
:10065E00101010101010101010101010101010108C
:10066E000003040404040404080404040404030042
:10067E00045A2000000000000000000000000000EE
:10068E000000000000000000002F00000000070026
:10069E00070000147F147F1400242A7F2A120062A0
:1006AE00640813230036495522500000050300004C
:1006BE0000001C224100000041221C000014083ED4
:1006CE0008140008083E0808000000A0600000089A
:1006DE0008080808000060600000002010080402EE
:1006EE00003E5149453E0000427F400000426151AC
:1006FE004946002141454B31001814127F10002746
:10070E0045454539003C4A49493000017109050308
:10071E0000364949493600064949291E0000363639
:10072E00000000005636000000081422410000149C
:10073E001414141400004122140800020151090679
:10074E0000324959513E007C1211127C007F4949FA
:10075E004936003E41414122007F4141221C007F2B
:10076E0049494941007F09090901003E4149497A39
:10077E00007F0808087F0000417F410000204041B3
:10078E003F01007F08142241007F40404040007F1F
:10079E00020C027F007F0408107F003E4141413E63
:1007AE00007F09090906003E4151215E007F0919AB
:1007BE0029460046494949310001017F0101003FA8
:1007CE004040403F001F2040201F003F4038403F28
:1007DE00006314081463000708700807006151498C
:1007EE00454300007F41410000552A552A5500001F
:1007FE0041417F000004020102040040404040409D
:10080E00000001020400002054545478007F484434
:10081E00443800384444442000384444487F00386B
:10082E005454541800087E0901020018A4A4A47C94
:10083E00007F080404780000447D4000004080845E
:10084E007D00007F102844000000417F4000007CA6
:10085E0004180478007C08040478003844444438B2
:10086E0000FC242424180018242418FC007C0804FE
:10087E00040800485454542000043F444020003CD7
:10088E004040207C001C2040201C003C4030403C5E
:10089E00004428102844001CA0A0A07C00446454EE
:1008AE004C44141414141414000000000000000032
:1008BE000000000000000000000000F80000000032
:1008CE00000000333000000000100C06100C060073
:1008DE00000000000000000040C07840C0784000DA
:1008EE00043F04043F040400007088FC083000003C
:1008FE00001820FF211E0000F008F000E018000094
:10090E0000211C031E211E0000F00888700000004C
:10091E001E2123241927211010160E00000000009E
:10092E000000000000000000000000E018040200BB
:10093E00000000071820400000020418E00000002C
:10094E000040201807000000404080F0804040002A
:10095E000202010F01020200000000F00000000080
:10096E000101011F01010100000000000000000054
:10097E0080B07000000000000000000000000000C9
:10098E000001010101010101000000000000000052
:10099E0000303000000000000000000080601804ED
:1009AE00006018060100000000E010080810E000CA
:1009BE00000F102020100F00001010F80000000093
:1009CE000020203F202000000070080808887000DA
:1009DE00003028242221300000300888884830005A
:1009EE000018202020110E000000C02010F800007A
:1009FE0000070424243F240000F808888808080013
:100A0E000019212020110E0000E010888818000027
:100A1E00000F112020110E0000380808C8380800F9
:100A2E000000003F00000000007088080888700079
:100A3E00001C222121221C0000E010080810E000FA
:100A4E000000312222110F00000000C0C000000083
:100A5E0000000030300000000000008000000000A8
:100A6E0000008060000000000000804020100800A0
:100A7E000001020408102000404040404040400069
:100A8E000404040404040400000810204080000044
:100A9E000020100804020100007048080808F00049
:100AAE000000003036010000C030C828E810E00019
:100ABE000718272423140B000000C038E0000000A4
:100ACE00203C23020227382008F88888887000000E
:100ADE00203F202020110E00C030080808083800E2
:100AEE00071820202010080008F808080810E00059
:100AFE00203F202020100F0008F88888E8081000FA
:100B0E00203F20202320180008F88888E8081000CD
:100B1E00203F200003000000C03008080838000005
:100B2E0007182020221E020008F808000008F80806
:100B3E00203F210101213F20000808F8080800008D
:100B4E000020203F2020000000000808F8080800C0
:100B5E00C08080807F00000008F888C02818080038
:100B6E00203F20012638200008F808000000000071
:100B7E00203F20202020300008F8F800F8F8080068
:100B8E00203F003F003F200008F830C00008F80862
:100B9E00203F200007183F00E01008080810E00072
:100BAE000F10202020100F0008F808080808F00089
:100BBE00203F210101010000E01008080810E000AC
:100BCE000F18242438504F0008F888888888700041
:100BDE00203F2000030C30200070880808083800E1
:100BEE000038202121221C00180808F808081800D7
:100BFE000000203F2000000008F808000008F80858
:100C0E00001F202020201F000878880000C8380808
:100C1E00000007380E010000F80800F80008F80080
:100C2E00033C0700073C030008186880806818081A
:100C3E0020302C03032C30200838C800C838080098
:100C4E000000203F2000000010080808C8380800E7
:100C5E002038262120201800000000FE020202008B
:100C6E000000007F40404000000C30C0000000003B
:100C7E00000000010638C00000020202FE00000063
:100C8E00004040407F000000000004020202040009
:100C9E000000000000000000000000000000000046
:100CAE00808080808080808000020204000000002E
:100CBE000000000000000000000080808080000026
:100CCE000019242222223F2008F800808000000014
:100CDE00003F112020110E000000008080800000D7
:100CEE00000E112020201100000000808088F800E6
:100CFE00000E112020103F20000080808080000018
:100D0E00001F222222221300008080F0888888187B
:100D1E000020203F20200000000080808080800086
:100D2E00006B94949493600008F80080808000001B
:100D3E00203F210000203F200080989800000000F6
:100D4E000020203F20200000000000809898000026
:100D5E0000C08080807F000008F800008080800046
:100D6E00203F24022D302000000808F8000000006B
:100D7E000020203F20200000808080808080800026
:100D8E00203F20003F20003F8080008080800000B8
:100D9E00203F210000203F20000080808080000046
:100DAE00001F202020201F00808000808000000077
:100DBE0080FFA12020110E000000008080808000A6
:100DCE00000E112020A0FF80808080008080800097
:100DDE0020203F21200001000000808080808000C4
:100DEE000033242424241900008080E08080000039
:100DFE000000001F20200000808000000080800086
:100E0E00001F202020103F208080800000808080E6
:100E1E0000010E3008060100808000800080808076
:100E2E000F300C030C300F0000808000808080009B
:100E3E000020312E0E3120008080800000808080C6
:100E4E0080818E7018060100008080808080800076
:100E5E000021302C2221300000000000807C020294
:100E6E0000000000003F404000000000FF000000B6
:100E7E0000000000FF0000000002027C8000000065
:100E8E000040403F00000000000601010202040481
:080E9E0000000000000000004C
:109EA400E4900B98F0900B98E064126017E4FB7D4B
:109EB400757F69129B54900B98EFF07F0A7E001215
:049EC400A21F80E178
:019EC8002277
:108ECE007F0A7E0012A21F129EA47B807D6B7F699B
:108EDE0012A0937F027E0012A21FE4FB7D6B7F69BE
:108EEE00129B54EF20E7F37B017D6B7F6912A093F9
:108EFE00E4FB7D6C7F6912A0937B017D1A7F691262
:108F0E00A0937B077D197F6912A0937B187D1B7F31
:108F1E006912A0937B107D1C7F6912A0937B037D49
:068F2E001D7F6902A09303
:10936F007B017A0B7901900AD37406F0E4A3F07DA8
:10937F003B7F69128AC6900B01E0FEA3E0FDEDFF73
:10938F009009F9EEF0A3EFF0900B03E0FEA3E0FDE0
:10939F00EDFF9009FBEEF0A3EFF0900B05E0FEA3BD
:0C93AF00E0FDEDFF9009FDEEF0A3EFF0F3
:0193BB00228F
:1093BC007B017A0B7907900AD37406F0E4A3F07D55
:1093CC00437F69128AC6900B07E0FEA3E0FDEDFF18
:1093DC009009FFEEF0A3EFF0900B09E0FEA3E0FD87
:1093EC00EDFF900A01EEF0A3EFF0900B0BE0FEA363
:0C93FC00E0FDEDFF900A03EEF0A3EFF09F
:019408002241
:069FDF00C2A6EF4480FF62
:109FE500E4FEEF3392A3EF25E0FFC2A5D2A5A2A41C
:099FF500E4334FFF0EEEB408E95D
:019FFE002240
:0D001600C2A6129FE5AF05129FE5D2A622FB
:0FA34800129FDFE4FF129FE5EF12142CD2A62222
:0B99DF00900B5AEBF0A3EAF0A3E9F0B4
:1099EA00129FDFE4FDFC900B5DE0FFC3ED9FEC945A
:1099FA0000501FE4FF129FE5900B5AE0FBA3E0FA28
:109A0A00A3E0F98D828C83EF12143E0DBD00010C88
:049A1A0080D4D2A67C
:019A1E002225
:10A259007B017A0B79997F7512A348900B99E0B429
:02A2690012EEF3
:01A26B0022D0
:10927A0012A2597D807F6B1200167F027E0012A215
:10928A001F7B017A0B799A7F6B12A348900B9AE0A5
:10929A00B441EE7D017F6B1200161D7F6C12001621
:1092AA000D7F1A1200167D077F191200167D187F8E
:1092BA001B1200167D107F1C1200167D037F1D02F3
:0292CA0000168C
:10965D007B017A0B790D900B5D7406F07F3B1299AF
:10966D00DF900B0DE0FEA3E0FDEDFF9009F9EEF0AC
:10967D00A3EFF0900B0FE0FEA3E0FDEDFF9009FBD3
:10968D00EEF0A3EFF0900B11E0FEA3E0FDEDFF90E7
:07969D0009FDEEF0A3EFF060
:0196A40022A3
:1096A5007B017A0B7913900B5D7406F07F43129959
:1096B500DF900B13E0FEA3E0FDEDFF9009FFEEF058
:1096C500A3EFF0900B15E0FEA3E0FDEDFF900A017E
:1096D500EEF0A3EFF0900B17E0FEA3E0FDEDFF9099
:0796E5000A03EEF0A3EFF011
:0196EC00225B
:0EA2A500EBF0A3EAF0A3E9F0C2A6EF4480FFBD
:04A2B300120006226D
:10002600900B9BEDF0C2A612A2B3900B9BE0FF12C1
:05003600A2B3D2A622D6
:10A05900900B7912A2A5E4FF12A2B3900B79E0FB51
:0DA06900A3E0FAA3E0F9EF12142CD2A62216
:0392CC00900AC83D
:1092CF0012A2A5E4900ACCF0A3F0900ACBE0FFC362
:1092DF00900ACDE09F900ACCE09400502FE4FF124B
:1092EF00A2B3900AC8E0FBA3E0FAA3E0F9900ACC7E
:1092FF00E0FCA3E0F5828C83EF12143E900ACDE0E0
:0E930F0004F070C6900ACCE004F080BED2A636
:01931D00222D
:109F3600E4900B9CF0900B9CE0641260147B017A19
:109F46000B799C7F7512A0597F0A7E0012A21F8092
:019F5600E426
:019F570022E7
:108C2A00E4900B9DF07F0AFE12A21F900ABC7412F8
:108C3A00F0E4A3F0A3F0A3F07B117D107F01127F73
:108C4A008A129F367D807F6B1200267F027E001279
:108C5A00A21F7B017A0B799D7F6B12A059900B9D05
:108C6A00E0B441EE7D017F6B120026E4FD7F6C12B9
:108C7A0000267D017F1A1200267D077F1912002621
:108C8A007D187F1B1200267D107F1C1200267D0393
:058C9A007F1D02002611
:1096ED007B017A0B7919900ACB7406F07F3B1292AD
:1096FD00CC900B19E0FEA3E0FDEDFF9009F9EEF023
:10970D00A3EFF0900B1BE0FEA3E0FDEDFF9009FB36
:10971D00EEF0A3EFF0900B1DE0FEA3E0FDEDFF904A
:07972D0009FDEEF0A3EFF0CF
:019734002212
:109735007B017A0B791F900ACB7406F07F43129256
:10974500CC900B1FE0FEA3E0FDEDFF9009FFEEF0CE
:10975500A3EFF0900B21E0FEA3E0FDEDFF900A01E1
:10976500EEF0A3EFF0900B23E0FEA3E0FDEDFF90FC
:079775000A03EEF0A3EFF080
:01977C0022CA
:01004200229B
:07A1CA00C2A512A1D1D2A52C
:0EA1D1007F147E00EF1FAC0670011E4C70F66E
:01A1DF00225D
:0FA35700D2A3D2A512A1D1C2A312A1D1C2A52215
:0AA39800C2A312A1CAD2A302A1D1F0
:10A10200AD07C2A512A1D1ED6004C2A38002D2A301
:0AA11200D2A512A1D1C2A502A1D16D
:10A1E00012A1CA30A306C2A5E4FEFF22C2A512A195
:06A1F000D17E007F012278
:049E3200E025E0FF48
:029E3600AD0776
:109E38007B08AF031BEF6015ED30E704D2A3800267
:109E4800C2A3ED25E0FD12A1CCC2A580E502A1E0E8
:029C6600AD0748
:109C6800E4FBC2A512A1D1D2A3E4FA12A1D112A198
:109C7800CAEB25E0FB30A3010B0AEAB408EDC2A544
:0A9C880012A1D1AF0512A102AF0333
:019C920022AF
:10A09300900750EFF0AA03A90512A357129E32AFFF
:0CA0A30001129E36AF02129E3602A398F6
:099B5400900772EDF0AA07A903C5
:109B5D0012A357EA25E0FF129E36E0FF129E36E96A
:109B6D00B4010312A39812A357AF02EF25E04401ED
:109B7D00FF129E36E4FF129C66AD0712A398AF0547
:019B8D0022B5
:108AC600900ACEEFF0A3EDF0A3EBF0A3EAF0A3E952
:108AD600F012A357900ACE129E32A3E0FF129E36E2
:108AE600900AD4E0B4010312A39812A357900ACEB9
:108AF600E025E04401FF129E36900AD3E014F060B0
:108B0600207F01129C66900AD0E0FBA3E0FAA3E066
:108B1600F9EF12142C900AD1E475F0011214FD80BD
:108B2600D8E4FF129C66900AD0E0FBA3E0FAA3E02B
:088B3600F9EF12142C02A398C0
:10A2FB007D017F0312977D7D0A7C00E4FF026CAB2E
:1084D900900B5FEBF0A3EAF0A3E9F0900B5EEFF0ED
:1084E900E4900B62F0FD129127900B5EE0FF7DFF97
:1084F900129127900B5EE0FF7D01129127900B5E90
:10850900E0FFE4FD129127E4900B62F0900B62E02A
:10851900FFC39480504C900B5FE0FBA3E0FAA3E00B
:10852900F975F002EFA4F58285F0831215547D00E8
:10853900900B5EE0FF129127900B5FE0FBA3E0FA3E
:10854900A3E0F9A3E075F002A4F58285F083121582
:1085590054FD900B5EE0FF129127900B62E004F04E
:0285690080AAE6
:01856B0022ED
:109A9E00E4900B9EF0D2C8C2C9C2C8D2C9D2C8C205
:109AAE00C9F0C2C87D027F03129C93900B9EE025E5
:109ABE00E0249FF582E43403F583EEF0A3EFF0D2B9
:0D9ACE00C8900B9EE004F0E0C3948040D5EA
:019ADB002268
:06A3CC0025640025660077
:0AA3A200C2A2C2A1120006D2A2223C
:0AA3AC00C2A2D2A1120006D2A22222
:079D14002428FFE03400FEEB
:049D1B00AD07AC06DE
:109D1F00EC900B8EF0A3EFF0C2A2D2A1900B8EE0CD
:0E9D2F00FF120006900B8FE0FF120006D2A27A
:019D3D002203
:1069DF00900ABC7412F0E4A3F0A3F0A3F07B117D36
:1069EF00107F01127F8AD2A7C2A1C2A07FC87E00EA
:1069FF0012A21FD2A07F647E0012A21F7F3612A3A5
:106A0F00A27FA012A3AC7F3A12A3A27F0512A3AC60
:106A1F007FB212A3A27F0C12A3AC7F0C12A3ACE423
:106A2F00FF12A3AC7F3312A3AC7F3312A3AC7FB79B
:106A3F0012A3A27F3512A3AC7FBB12A3A27F371282
:106A4F00A3AC7FC012A3A27F2C12A3AC7FC212A350
:106A5F00A27F0112A3AC7FC312A3A27F1212A3AC19
:106A6F007FC412A3A27F2012A3AC7FC612A3A27F62
:106A7F000F12A3AC7FD012A3A27FA412A3AC7FA14D
:106A8F0012A3AC7FE012A3A27FD012A3AC7F04129B
:106A9F00A3AC7F0D12A3AC7F1112A3AC7F1312A373
:106AAF00AC7F2B12A3AC7F3F12A3AC7F5412A3ACCD
:106ABF007F4C12A3AC7F1812A3AC7F0D12A3AC7F37
:106ACF000B12A3AC7F1F12A3AC7F2312A3AC7FE1E9
:106ADF0012A3A27FD012A3AC7F0412A3AC7F0C121F
:106AEF00A3AC7F1112A3AC7F1312A3AC7F2C12A304
:106AFF00AC7F3F12A3AC7F4412A3AC7F5112A3AC67
:106B0F007F2F12A3AC7F1F12A3AC7F1F12A3AC7FEA
:106B1F002012A3AC7F2312A3AC7F2112A3A27F115B
:106B2F0012A3A27F787E0012A21F7F2912A3A27444
:066B3F00FFFFFE028D10B5
:10931E00900A99EEF0A3EFF0A3ECF0A3EDF0A3EA20
:10932E00F0A3EBF07F2A12A3A2900A9AE0900A997A
:10933E00129D14900A9EE0900A9D129D147F2B128E
:10934E00A3A2900A9CE02434FF900A9B129D1790D2
:10935E000AA0E02434FF900A9F129D177F2C02A3CF
:01936E00A25C
:088D1000900B2BEEF0A3EFF035
:108D1800900A9F7401F0A3743FF0FB7A01E4FDFC14
:108D2800FFFE12931EE4900B2DF0A3F0E4900B2F9E
:108D3800F0A3F0900B2BE0FEA3E0FF129D1B900B1D
:108D480030E004F07006900B2FE004F0C3900B3075
:108D5800E09440900B2FE0940140D8900B2EE00453
:108D6800F07006900B2DE004F0C3900B2EE09440B9
:088D7800900B2DE0940140B4C2
:018D800022D0
:10995C00900B31EEF0A3EFF0900B35EAF0A3EBF0A7
:10996C00900B33ECF0A3EDF0900B31E0FAA3E0FB9D
:10997C00FFAE02C007A3E0FFA3E0900A9FCFF0A3C5
:10998C00EFF0D00712931E900B35E0FEA3E0FF0220
:02999C009D1B11
:067B8600F583E02430FB52
:107B8C00900AA1EEF0A3EFF0A3ECF0A3EDF0A3EBC1
:017B9C00F0F8
:107B9D00E4A3F0900AA6E0F9C394104003027C5AC6
:107BAD00E9FF900AA4E02FFD900AA3E03400FC90B9
:107BBD000AA2E02407FB900AA1E03400FA7E0090AF
:107BCD000AA3E0F8A3E02FFFEE38900A9FF0A3EF91
:107BDD00F0900AA1E0FEA3E0FF12931E900AA5E02B
:107BED00FF3395E0FEEFC4F8540FC868FFEEC454A0
:107BFD00F048FE749E2FF58274FE3EF583C083C05F
:107C0D0082900AA6E0D082D0832582F582E4358366
:107C1D00F583E493900AA8F0E4900AA7F0900AA8DF
:107C2D00E030E0067F007EF8800474FFFFFE129DB9
:107C3D001B900AA8E0C313F0900AA7E004F0E0C37C
:0D7C4D00940840D9900AA6E004F0027BA044
:017C5A002207
:108BB400900A6FEEF0A3EFF0A3ECF0A3EDF0A3EBBB
:078BC400F0A3EAF0A3E9F0C1
:108BCB00E4A3F0A3F0900A73E0FBA3E0FAA3E0F9AF
:108BDB00A3E0FEA3E0FFF5828E831213FFFB603E42
:108BEB00EF7803C333CE33CED8F9FF900A70E02F62
:108BFB00FF900A6FE03EFE900A72E0C4F8540FC873
:108C0B0068FD900A71E0C454F048FC127B8C900A0A
:0E8C1B0077E004F070AF900A76E004F080A7D6
:018C29002228
:107DFC00900A78EEF0A3EFF0A3ECF0A3EDF0A3EB78
:017E0C00F085
:107E0D00C364809480900A7BE0C4F8540FC868FD69
:107E1D00900A7AE0C454F048FC900A78E0FEA3E0A2
:107E2D00FF500E7B2D127B8C900A7CE0F404F080C9
:107E3D00057B20127B8C900A7CE0FF75F064121399
:107E4D00C4900A7DF0EF75F00A1213C4FF75F00AA5
:107E5D001213C4AFF0900A7EEFF0900A7CE0FF752C
:107E6D00F00A1213C4AFF0900A7FEFF0E4A3F09084
:107E7D000A80E0FB2401FFE433FEEF7803C333CE29
:107E8D0033CED8F9FF900A79E02FFF900A78E03EC3
:107E9D00FE900A7BE0C4F8540FC868FD900A7AE0A2
:107EAD00C454F048FC747D2BF582E4340A127B86B1
:0C7EBD00900A80E004F0E0C3940340B39E
:017EC9002296
:0E8D8100900AA9EEF0A3EFF0A3ECF0A3EDF042
:108D8F00EB75F06484A3F0EB75F00A8475F00A8438
:108D9F00A3E5F0F0EB75F00A84A3E5F0F0E4A3F09F
:108DAF00900AB0E0FB75F008A4FF900AAAE02FFF2D
:108DBF00900AA9E035F0FE900AACE0C4F8540FC851
:108DCF0068FD900AABE0C454F048FC74AD2BF582FB
:108DDF00E4340A127B86900AB0E004F0E0C39403F7
:028DEF0040BE84
:018DF100225F
:1074C100900A05EEF0A3EFF0A3ECF0A3EDF0A3EA30
:0474D100F0A3EBF049
:1074D500C3EA64809480900A08E0C4F8540FC86831
:1074E500FD900A07E0C454F048FC900A05E0FEA3AD
:1074F500E0FF501C7B2D127B8C900A09E0FEA3E077
:10750500FFC3E49FFFE49E900A09F0A3EFF0800516
:107515007B20127B8C900A09E0FAA3E0FB7C277D97
:1075250010FFAE021214C7A3EFF07C037DE8AF0392
:10753500AE021214C77C007D0A1214C7A3EDF090A9
:107545000A09A3E07C007D64FFAE021214C77C002B
:107555007D0A1214C7900A0DEDF07C007D0AAF0379
:10756500AE021214C77C007D0A1214C7A3EDF09079
:107575000A09E0FEA3E0FF7C007D0A1214C7900A09
:107585000FEDF0E4A3F0900A10E0FB2401FFE433D3
:10759500FEEF7803C333CE33CED8F9FF900A06E069
:1075A5002FFF900A05E03EFE900A08E0C4F8540F4C
:1075B500C868FD900A07E0C454F048FC740B2BF52D
:1075C50082E4340A127B86900A10E004F0E0C3944A
:0375D5000540B3BB
:0175D8002290
:0E80F200900A49EEF0A3EFF0A3ECF0A3EDF03E
:108100007C277D10AF03AE02121472A3EFF07C0344
:108110007DE8AF03AE021214727C007D0A12147265
:10812000A3EDF07C007D64AF03AE021214727C00FC
:108130007D0A121472A3EDF07C007D0AAF03AE023B
:108140001214727C007D0A121472A3EDF0AE02AF1D
:10815000037C007D0A121472A3EDF0E4A3F0900AF0
:1081600052E0FB75F008A4FF900A4AE02FFF900A46
:1081700049E035F0FE900A4CE0C4F8540FC868FDA1
:10818000900A4BE0C454F048FC744D2BF582E43463
:108190000A127B86900A52E004F0E0C3940540BEC8
:0181A00022BC
:0E79C000900967EEF0A3EFF0A3ECF0A3EDF05A
:1079CE0090096FE0FF740AC39F5003740AF0900988
:1079DE006FE004F090096BE0FCA3E0FDA3E0FEA3D2
:1079EE00E0FFE4FBFAF9F8D312170340319007B524
:1079FE0074FFF0A374A3F0A374CCF090096BE0FCB9
:107A0E00A3E0FDA3E0FEA3E0FF9007B81218470B1A
:107A1E007A097970123240900992EFF0803890090D
:107A2E00707420F09007B574FFF0A374A3F0A374E4
:107A3E00CCF090096BE0FCA3E0FDA3E0FEA3E0FF19
:107A4E009007B81218477B017A097971123240906B
:107A5E000992EFF0801E90096FE0FF900992E0FE10
:107A6E00C39F501574702EF582E43409F58374208B
:107A7E00F0900992E004F080DD74702FF582E4340A
:107A8E0009F583E4F0900967E0FEA3E0FFA3E0FCB4
:0C7A9E00A3E0FD7B017A097970028BB433
:0E6B450090090CEEF0A3EFF0A3ECF0A3EDF03E
:106B5300900915E0FF7406C39F50037406F0900973
:106B630014E0FF740AC39F5003740AF0900910E005
:106B7300FCA3E0FDA3E0FEA3E0FFE4FBFAF9F812B7
:106B830011449007B56031402F74FFF0A374A3F054
:106B9300A374CFF0900910E0FCA3E0FDA3E0FEA3F3
:106BA300E0FF9007B81218477B017A097917123270
:106BB30040900916EFF0803074FFF0A374A3F0A3A4
:106BC30074CFF0900910E0FCA3E0FDA3E0FEA3E086
:106BD300FF9007B81218477B017A097918123240DF
:106BE300900916EFF0E004F0900916E024F9FD9007
:106BF3000914E0FEC3ED9E14900939F0900915E0E5
:106C0300AE052E0490093AF0900939E0D36480F878
:106C13007480984022A3E0FF3395E0FE74172FF5AC
:106C23008274093EF5837420F090093AE004F090F1
:106C33000939E004F080D1900910E0FCA3E0FDA342
:106C4300E0FEA3E0FFE4FBFAF9F8121144900939DE
:106C530060174015E0FF3395E0FE74172FF582743B
:106C6300093EF583742DF08013E0FF3395E0FE7445
:106C7300172FF58274093EF5837420F090093AE0EA
:106C8300FF3395E0FE74172FF58274093EF583E414
:106C9300F090090CE0FEA3E0FFA3E0FCA3E0FD7B82
:086CA300017A097917028BB494
:10626400900993EEF0A3EFF0A3ECF0A3EDF0A3EB11
:02627400F0F93F
:10627600E0FF131313541F9009A5F090099BE08FBC
:10628600F0A424FFFDE5F034FFFC900993E0FEA3A3
:10629600E0FF2DFBEE3CFAC002C003C006A3E0FC03
:1062A600A3E0FDE9FB7A00900995E0F8A3E02BFB5B
:1062B600EA38CB24FFFEEB34FF900A9FF0A3CEF022
:1062C600D006D003D00212931EE490099EF0A3F0EC
:1062D600900997E0FF90099EE0FCA3E0FDC39F7440
:1062E60080F8EC64809840030263F790099BE09085
:1062F60009A4F0A3E0FF7E00121460900998E0FB69
:10630600A3E0FAA3E02FF9EA3E0263D79009A4E0DE
:10631600FF14F0EF70030263E6E49009A2F0A3F025
:106326009009A5E0FFC39009A3E09F7480F8900947
:10633600A2E064809850779009A0E4F0A37408F076
:106346009009A0E0FEA3E0FFD39400EE6480948061
:1063560040419009A6E0FBA3E0FAA3E0F91213E698
:10636600FDEF14FFEDA807088002C313D8FC540103
:10637600600A90099CE0FEA3E0FF800474FFFFFE24
:10638600129D1B9009A1E024FFF09009A0E034FFC4
:10639600F080AD9009A7E475F0011214FD9009A3F1
:1063A600E004F070069009A2E004F002632690096A
:1063B600A5E0FFFDA3E0FBA3E0FAA3E0C39DF9EA95
:1063C6009400FA900997E0FEEF8EF0A429F9EA35D9
:1063D600F0FA9009A6EBF0A3EAF0A3E9F002631243
:1063E60090099FE004F0700690099EE004F00262B6
:0163F600D6D0
:0163F7002283
:109FFF00E4FB7D6B7F6812A0937B077D197F68124E
:0FA00F00A093E4FB7D197F68129B54BF07F422D6
:1095CB007F647E0012A21F129FFFE4FB7D6B7F68FE
:1095DB0012A0937B077D197F6812A0937B047D1AE1
:1095EB007F6812A0937B187D1B7F6812A0937B1062
:1095FB007D1C7F6812A093E4FB7D6A7F6812A093A9
:09960B007B027D377F6802A09309
:109409007B017A0B7937900AD37406F0E4A3F07DD7
:109419003B7F68128AC6900B37E0FEA3E0FDEDFFA3
:10942900900A11EEF0A3EFF0900B39E0FEA3E0FDF6
:10943900EDFF900A13EEF0A3EFF0900B3BE0FEA3D3
:0C944900E0FDEDFF900A15EEF0A3EFF03F
:0194550022F4
:109456007B017A0B793D900AD37406F0E4A3F07D84
:10946600437F68128AC6900B3DE0FEA3E0FDEDFF48
:10947600900A17EEF0A3EFF0900B3FE0FEA3E0FD9D
:10948600EDFF900A19EEF0A3EFF0900B41E0FEA37A
:0C949600E0FDEDFF900A1BEEF0A3EFF0EC
:0194A20022A7
:10A26C00EF1FAA0670011E4A60087D091DED60F003
:02A27C0080FA66
:01A27E0022BD
:0B9EC900C2CCEF4480FF129ED4AF0516
:109ED400E4FEEF3392FDEF25E0FFC2FFD2FFA2FEC6
:099EE400E4334FFF0EEEB408E96F
:019EED002252
:06A3D200129EC9D2CC224C
:10A1F600C2CCEF4440FF129ED4E4FF129ED4EF126D
:05A20600142CD2CC2253
:109FBE00129EC9D2CCC2CCE4FF129ED4AC07E4FFF1
:109FCE00129ED4D2CCAF04ED6F60037F01227F00CE
:019FDE002260
:109A1F00900B7CEBF0A3EAF0A3E9F0C2CCEF44404B
:109A2F00FF129ED4E4FF129ED4D2CC7F017E00128F
:109A3F00A26CC2CCE4FF129ED4900B7CE0FBA3E09F
:109A4F00FAA3E0F9EF12142CE4FF129ED4D2CC2229
:109E0A00AB07AA06C3E49BFB74109AFAEBC4F85496
:109E1A000FC868FBEAC454F048FAAD03E4FF129F86
:089E2A00BEEAFD7F01029FBEAC
:109EEE00C2CCE4FF129ED4AD07ED7D00FCE4FF1260
:109EFE009ED4D2CCAE04EEC4F854F0C868FEEFC4C3
:049F0E00540F48FFA5
:019F1200222C
:10A27F007B017A0B799F7F06129A1F900B9FE0B498
:02A28F001CEEC3
:01A2910022AA
:10A30B0012A27FE4FD7F09129FBEE4FFFE029E0AAC
:0EA2B700EBF0A3EAF0A3E9F0C2CCEF4440FFC5
:04A2C500120006225B
:10A15000900BA0EDF0C2CCEF4480FF12A2C5900B93
:09A16000A0E0FF12A2C5D2CC223E
:10A07600900B7F12A2B7E4FF129ED4900B7FE0FBF9
:0DA08600A3E0FAA3E0F9EF12142CD2CC22D3
:059ADC00900B90EDF07D
:109AE100C2CCEF4480FF12A2C5900B90E0FF12A2FE
:109AF100C5D2CCC2CCE4FF12A2C5900B91EFF0E429
:109B0100FF12A2C5D2CC900B91E0FF900B90E06FB9
:079B110060037F01227F00C9
:019B1800222A
:109CE900900B8212A2B7E4FF12A2C5D2CCC2CCE477
:109CF900FF12A2C5900B82E0FBA3E0FAA3E0F9EF03
:0B9D090012142CE4FF12A2C5D2CC22E1
:109B8E00900B92EEF0A3EFF0C3E49FF074109E9052
:109B9E000B92F0A3E0C4F8540FC868FF900B92E04C
:109BAE00C454F048F0A3EFF0FDE4FF129ADC900BE2
:089BBE0092E0FD7F01029ADC38
:10999E00E4900B94F0A3F0C2CCFF12A2C5900B94EE
:1099AE00E4F0A3EFF0E0F8E4F0E8900B94F0E4FFBD
:1099BE0012A2C5900B94E0F0A3E04FF0D2CC900B26
:1099CE0094E0C4F854F0C868FEA3E0C4540F48FFF6
:0199DE002266
:10A292007B017A0B79A17F06129CE9900BA1E0B4B5
:02A2A2001CEEB0
:01A2A4002297
:109E5800900ABC7422F0E4A3F0A3F0A3F07B217D68
:109E6800207F02127F8A12A292E4FD7F09129ADCF7
:069E7800E4FFFE029B8ED8
:10A169009007531218530001C2009007577404F066
:09A179007B117D107F03025F29B8
:1081A100900AD5EBF0A3EAF0A3E9F0A38062E47FA3
:1081B1001EFEFDFC900AD8E0F8A3E0F9A3E0FAA3C3
:1081C100E0FBD3121719404D308702804B900AD53E
:1081D100E0FBA3E0FAA3E0F9900AEDE4F0A3741E3A
:1081E100F07F03129DBA900AD6E475F01E1214FDB9
:1081F100900AD8E0FCA3E0FDA3E0FEA3E0C3941E37
:10820100FFEE9400FEED9400FDEC9400FC900AD882
:10821100121847809930870F900AD8E0FCA3E0FD3F
:10822100A3E0FEA3E0FF22900AD5E0FBA3E0FAA3BE
:10823100E0F9A3A3A3E0FFA3E0900AEDCFF0A3EF41
:0C824100F07F03129DBAE4FFFEFDFC225A
:0E87A300900ADCEBF0A3EAF0A3E9F0A3EDF0FE
:1087B10074FFA3F0A3F0E4A3F0900ADFE0FF900AB6
:1087C100E2E0FEC39F505B900ADCE0FBA3E0FAA36A
:1087D100E0F98E827583001213FFFF900AE0E0F04A
:1087E100A3E06FF0E4FD900AE0E0FEA3E0FF30E0DB
:1087F10019EEC313FEEF13FFEE64A0FEEF6401FF59
:10880100900AE0EEF0A3EFF0800B900AE0E0C313D2
:10881100F0A3E013F00DEDB408CC900AE2E004F00F
:0A8821008097900AE0E0FEA3E0FF5C
:01882B00222A
:1082F600900A36ECF0A3EDF0A3EAF0A3EBF0900AB7
:0683060034EEF0A3EFF0DD
:10830C00E4FC900A3CE0FBA3E0FAA3E0F9EF1214C2
:10831C002C900A34E0FEEEFF900A3CE0FBA3E0FA5E
:10832C00A3E0F9900001EF12143E900A36A3E090FE
:10833C00000212143E900A36E0FEEE900003121476
:10834C003E900A38A3E090000412143E900A38E0E4
:10835C00FEEE90000512143E900A3AA3E09000063F
:10836C0012143E900A3AE0FEEE90000712143E7D85
:10837C00081287A3900A3CE0FBA3E0FAA3E0F99073
:0D838C000008EF12143EEE90000902143EAE
:105D77009007E4E0FBA3E475F004121513A9F0FA09
:105D870012173D900809121847900809E0FCA3E094
:105D9700FDA3E0FEA3E0FF7B017A0779E8E4900921
:065DA700B0F0A37410F03F
:105DAD009009A91218479009ADEBF0A3EAF0A3E909
:015DBD00F0F5
:105DBE00E49009BAF0A3F09009B0E07003025E7CA3
:105DCE009009A9E0FCA3E0FDA3E0FEA3E0FF90098B
:105DDE00B21218479009B2E0FCA3E0FDA3E0FEA3C7
:105DEE00E0FFEC3350109009B2A3A3A3E01216F516
:105DFE009009B21218479009B1E0FBE4FAF9F8A342
:105E0E00E0FCA3E0FDA3E0FEA3E0FF129894EB24D8
:105E1E0030FF9009ADE0FBA3E0FAA3E0F9EF121416
:105E2E002C9009B2E0FCA3E0FDA3E0FEA3E0FFC0CE
:105E3E00079009B1E0FBE4FAF9F8D00712989490B4
:105E4E0009B21218479009BBE004F09009B2E0FCC9
:105E5E00A3E0FDA3E0FEA3E0FFEC4D4E4F70030266
:105E6E005F239009AEE475F0011214FD808890094D
:105E7E00A9E0FCA3E0FDA3E0FEA3E0FF9009B612AB
:105E8E0018479009B1E0FBE4FAF9F89009B6E0FC86
:105E9E00A3E0FDA3E0FEA3E0FF121663AF0390099B
:105EAE00BAEFF0740AD39F5006E02437F0800790C3
:105EBE0009BAE02430F09009BAE0FF9009ADE0FB9A
:105ECE00A3E0FAA3E0F9EF12142C9009B6E0FCA3BC
:105EDE00E0FDA3E0FEA3E0FFC0079009B1E0FBE404
:105EEE00FAF9F8D0071216639009B61218479009FE
:105EFE00BBE004F09009B6E0FCA3E0FDA3E0FEA336
:105F0E00E0FFEC4D4E4F600D9009AEE475F00112BE
:0A5F1E0014FD025E909009BBE0FF45
:015F28002256
:1076ED0090080DEFF07B017A0779E8E0FFE4FCFDEF
:0176FD00FE8E
:0F76FE00900A1DEBF0A3EAF0A3E9F0A3121847DE
:10770D00900A2412185300000000E47B02FAF9F8E5
:10771D00900A20E0FCA3E0FDA3E0FEA3E0FF12161B
:10772D0063900A24E0F8A3E0F9A3E0FAA3E0FBC319
:10773D0012171940030277E5900A20A3A3E0FEA3D8
:10774D00E024FFFBEE34FFFAA3A3A3E0FEA3E0FFCA
:10775D00C3EB9FFDEA9EFC900A1DE0FBA3E0FAA39C
:10776D00E0F98D828C831213FF900A28F08F828EA0
:10777D00831213FFFFC007900A20A3A3E0FEA3E02E
:10778D0024FFFBEE34FFFAA3A3A3E0FEA3E0FDACC0
:10779D0006C3EB9DFFEA9CFE900A1DE0FBA3E0FAF9
:1077AD008F828E83D0E012143E900A28E0FFEF8D79
:1077BD00828C8312143E900A24E0FCA3E0FDA3E02A
:1077CD00FEA3E02401FFE43EFEE43DFDE43CFC901D
:0877DD000A2412184702771775
:0177E5002281
:0B3240009007B2EBF0A3EAF0A3E9F066
:10324B009007E0121853000000009007E47401F09F
:10325B00A37407F0A374B8F09007B5E0FBA3E0FAF2
:0C326B00A3E0F91213E6FF70030237C65F
:103277009007E7F0642560030237729007B5A3E46F
:1032870075F0011214FDA9F0FA1213E61218E237CD
:103297003E2533454636185832BE6332DA64334525
:1032A7006632DA69359D6F36E570366C733517759A
:0732B700361878000037B95A
:1032BE009007E4E0FBA3E475F004121513A9F0FAED
:0932CE0012173D9007E8EFF0E053
:0332D7000237803B
:1032DA009007E4E0FBA3E475F004121513A9F0FAD1
:1032EA0012173D900809121847900809E0FCA3E05C
:1032FA00FDA3E0FEA3E0FF7B017A0779E89009B01D
:10330A007401F0A3740AF0125DAD90080DEFF0900D
:10331A000809E0FCA3A3A3EC335014A3E024E8F5C6
:10332A0082E43407F583742DF090080DE004F07BF5
:08333A00017A0779E890080D03
:0333420002355BF6
:103345009007E4E0FBA3E475F004121513A9F0FA65
:1033550012173D900809121847900809E0FCA3E0F0
:10336500FDA3E0FEA3E0FF1212007B017A0779E8D6
:103375009009B07401F0A3740AF0125DAD90080DC8
:10338500EFF0E4FFFEFDFC900809E0F8A3E0F9A3E7
:10339500E0FAA3E0FB121144501690080DE024E872
:1033A500F582E43407F583742DF090080DE004F000
:1033B5007B017A0779E890080D1276F890080DE000
:1033C500FF7E009007B2E0FBA3E0FAA3E0F8AC02B1
:1033D500AD037B017A0779E812139E90080DE0FF93
:1033E500FD9007B3E48DF01214FD9007E0E0F8A31B
:1033F500E0F9A3E0FAA3E0FBE4FCFDFEEB2FFFEE12
:103405003AFEED39FDEC38FC9007E01218479008BC
:1034150009E0FCA3E0FDA3E0FEA3E0FF121200EC2F
:103425001211C2A804A905AA06AB07900809E0FC79
:10343500A3E0FDA3E0FEA3E0FF120EA97B007A2422
:1034450079747849120F9E90080912184790080957
:10345500E0FCA3E0FDA3E0FEA3E0FFEC4D4E4F60D2
:1034650024900809A3A3A3E01212007B017A07792F
:10347500E89009B07401F0A3740AF0125DAD9008EC
:103485000DEFF080209007ED7430F09007ECF09090
:1034950007EBF09007EAF09007E9F09007E8F09065
:1034A500080D7406F090080DE0FF7406D39F4015D3
:1034B50074E82FF582E43407F5837430F090080D35
:1034C500E004F080E090080DE024E8F582E434079C
:1034D500F583742EF090080DE0041276F190080D36
:1034E500E0FF7E009007B2E0FBA3E0FAA3E0F8ACB2
:1034F50002AD037B017A0779E812139E9007E0E09D
:10350500F8A3E0F9A3E0FAA3E0FB90080DE0FF02C1
:02351500365A24
:103517009007E4E0FBA3E475F004121513A9F0FA91
:1035270012173D900809121847900809E0FCA3E01C
:10353700FDA3E0FEA3E0FF7B017A0779E8E49009A9
:10354700B0F0A3740AF0125DAD90080DEFF07B01A7
:103557007A0779E81276F890080DE0FF7E00900769
:10356700B2E0FBA3E0FAA3E0F8AC02AD037B017A7B
:103577000779E812139E90080DE0FFFD9007B3E46A
:103587008DF01214FD9007E0E0F8A3E0F9A3E0FA4C
:03359700A3E0FBB3
:03359A0002365A9C
:10359D009007E4E0FBA3E475F004121513A9F0FA0B
:1035AD0012173D900809121847900809E0FCA3E096
:1035BD00FDA3E0FEA3E0FF7B017A0779E8E4900923
:1035CD00B0F0A37408F0125DAD1276ED90080DE029
:1035DD00FF7E009007B2E0FBA3E0FAA3E0F8AC0297
:1035ED00AD037B017A0779E812139E90080DE0FF79
:1035FD00FD9007B3E48DF01214FD9007E0E0F8A301
:08360D00E0F9A3E0FAA3E0FBE1
:0336150002365A20
:10361800125D771276ED90080DE0FF7E009007B2FC
:10362800E0FBA3E0FAA3E0F8AC02AD037B017A0764
:1036380079E812139E90080DE0FFFD9007B3E48D22
:10364800F01214FD9007E0E0F8A3E0F9A3E0FAA374
:10365800E0FBE4FCFDFEEB2FFFEE3AFEED39FDEC5E
:013668003829
:033669000237B273
:10366C009007E4E0FBA3E475F003121513A9F0FA3C
:10367C001218C29007E8EBF0A3EAF0A3E9F0900768
:10368C00E8E0FBA3E0FAA3E0F91213E670030237BB
:10369C00B91213E6FF9007B2E0FBA3E0FAA3E0F93E
:1036AC00EF12142C9007B3E475F0011214FD90077F
:1036BC00E0E0FCA3E0FDA3E0FEA3E02401FFE43E78
:1036CC00FEE43DFDE43CFC9007E01218479007E94E
:0936DC00E475F0011214FD80A553
:1036E500125D7790080DEFF07B017A0779E87F0886
:1036F5007E007D007C001276FE9007B2E0FBA3E021
:10370500FAA3E0F8AC02AD037B017A0779E87E0005
:103715007F0812139E9007B3E475F0081214FD900C
:1037250007E0E0FCA3E0FDA3E0FEA3E02408FFE43E
:073735003EFEE43DFDE43C13
:10373C0080749007B2E0FBA3E0FAA3E0F9742512C1
:10374C00142C9007B3E475F0011214FD9007E0E01F
:10375C00FCA3E0FDA3E0FEA3E02401FFE43EFEE4B5
:10376C003DFDE43C80409007B5E0FBA3E0FAA3E00C
:10377C00F91213E6FF9007B2E0FBA3E0FAA3E0F91D
:10378C00EF12142C9007B3E475F0011214FD90079E
:10379C00E0E0FCA3E0FDA3E0FEA3E02401FFE43E97
:1037AC00FEE43DFDE43CFC9007E01218479007B6A0
:0737BC00E475F0011214FD99
:1037C3000232639007E0E0FCA3E0FDA3E0FEA3E088
:0137D300FFF6
:0137D40022D2
:0C272000410B7000410B7100410B720076
:030023000295380B
:0D953800C0E0C083C082C0D075D000C00765
:10954500E59830E1085398FD90072EE4F0E5983052
:10955500E0205398FEAF99EFB47F12900B6FE0FFB8
:1095650004F0EFD39414400A75C7608005900B6F23
:02957500E4F020
:0B957700D007D0D0D082D083D0E032EB
:03004300029F58C1
:109F5800C0E0C083C082E59A30E108539AFD9007BB
:109F68002FE4F0E59A30E003539AFED082D083D0F4
:029F7800E032D5
:03008B00029F7A57
:109F7A00C0E0C083C082E5AC30E10853ACFD900775
:109F8A0030E4F0E5AC30E00353ACFED082D083D0AD
:029F9A00E032B3
:03009300029F9C2D
:109F9C00C0E0C083C082E58430E1085384FD9007A3
:109FAC0031E4F0E58430E0035384FED082D083D0DA
:029FBC00E03291
:03003B000290B977
:1090B900C0E0C0F0C083C082C0D075D000C000C07D
:1090C90001C002C003C004C005C006C00730D808EB
:1090D90053D8FEE4FF12856C30D90853D8FD7F01BF
:1090E90012856C30DA0853D8FB7F0212856C30DBAD
:1090F9000353D8F7D007D006D005D004D003D00247
:0F910900D001D000D0D0D082D083D0F0D0E032CF
:03000300020052A6
:01005200327B
:030013000200598F
:010059003274
:0300530002005A4E
:01005A003273
:03005B0002008917
:010089003244
:0300830002008AEE
:01008A003243
:03009B00028A4A8C
:108A4A00C0E0C0F0C083C082C0D075D000C000C0F2
:0D8A5A0001C002C003C004C005C006C00773
:108A6700900B70E004F0A3E004F0A3E004F090059D
:108A7700CD7401F0900B70E0B40507E4F090063078
:108A870004F0900B71E0B43207E4F090063B04F079
:108A9700900B72E0B46405E4F012A3B6B2CA1241B7
:048AA7002A53EFFD62
:108AAB00D007D006D005D004D003D002D001D0001F
:0B8ABB00D0D0D082D083D0F0D0E032C9
:103C8900120056128F97124D5C120086122CA390C7
:103C990008BDE0F8A3E0F9A3E0FAA3E0FB9008C9A6
:103CA900E0FCA3E0FDA3E0FEA3E0FF120EA97B0068
:103CB9007A80796D7845120F9EC004C005C006C090
:103CC900079008C9E0FCA3E0FDA3E0FEA3E0FF9094
:103CD90008BDE0F8A3E0F9A3E0FAA3E0FB120EADFA
:103CE900A804A905AA06AB07D007D006D005D004B9
:103CF9001210A7C004C005C006C0079008ABE0FCBD
:103D09001211CCD003D002D001D000120F9E90081E
:103D1900D21218479008D2E0FCA3E0FDA3E0FEA36D
:103D2900E0FF121200C004C005C006C0079008AB2E
:103D3900E0FBFF3395E0FEC3E49FFFE49EFE33956D
:103D4900E0FDFC90076A121847AF03EF3395E0FED8
:103D5900FDFC90076E121847D007D006D005D00495
:103D6900128F34EC1211C29008D21218479008D859
:103D7900E0FCA3E0FDEC1211C79008BDE0F8A3E058
:103D8900F9A3E0FAA3E0FB121144607640749008AD
:103D9900A8E0FCA3E0FDEC1211C79008C9E0F8A364
:103DA900E0F9A3E0FAA3E0FB1211446055405390F7
:103DB90008B8E0FCA3E0FDEC1211C79008ACE0F8EC
:103DC900A3E0F9A3E0FAA3E0FB1211446034403206
:103DD9009008BAE0FCA3E0FDEC1211C79008B0E02E
:103DE900F8A3E0F9A3E0FAA3E0FB12114460134041
:103DF900119005CCE0700B9005BF04F090063CE0F3
:103E090004F09005BFE07003023F1C90063CE0C33C
:103E1900648094835003023F1CE47F1EFEFDFC90E6
:103E290005CEE0F8A3E0F9A3E0FAA3E0FB1217033B
:103E39004003023EE474FF7FE2FEFDFC9005CEE004
:103E4900F8A3A3A3E01217035003023EE49008ACC1
:103E5900E0F8A3E0F9A3E0FAA3E0FB9008B0E0FCE6
:103E6900A3E0FDA3E0FEA3E0FF120EA97B007A8088
:103E7900796D7845120F9EC004C005C006C0079031
:103E890008B0E0FCA3E0FDA3E0FEA3E0FF9008ACCE
:103E9900E0F8A3E0F9A3E0FAA3E0FB120EADA80451
:103EA900A905AA06AB07D007D006D005D004121081
:103EB900A7C004C005C006C0079008ABE0FC1211FA
:103EC900CCD003D002D001D000120F9E9008D2129C
:103ED9001847900874E4F0A37404F07F987EFE7D7F
:103EE900FF7CFF9005CEE0F8A3E0F9A3E0FAA3E098
:103EF900FBC31217034016E47F687E01FDFC9005A1
:103F0900CEE0F8A3A3A3E0D312170340069005CC93
:103F19007401F09005CCE0700302405BC2C4E490E8
:103F2900063CF09005BFF090059B12185300000065
:103F3900009005CE121853000000007FCD7ECC7D85
:103F49004C7C3F9008ACE0F8A3E0F9A3E0FAA3E0C9
:103F5900FB120F9EA804A905AA06AB079008BDE0AD
:103F6900FCA3E0FDA3E0FEA3E0FF120EA9C004C07C
:103F790005C006C0077FCD7ECC7D4C7C3F9008B044
:103F8900E0F8A3E0F9A3E0FAA3E0FB120F9EA8046E
:103F9900A905AA06AB079008C9E0FCA3E0FDA3E0C8
:103FA900FEA3E0FF120EA9D003D002D001D0001267
:103FB9000EA97B007A80796D7845120F9EC004C0E6
:103FC90005C006C0079008C9E0FCA3E0FDA3E0FE18
:103FD900A3E0FF9008BDE0F8A3E0F9A3E0FAA3E0AD
:103FE900FB120EADA804A905AA06AB07D007D00697
:103FF900D005D0041210A7C004C005C006C00790A0
:1040090008ABE0FC1211CCD003D002D001D00012D1
:104019000F9E9008D21218479008D6E0FEA3E0FF41
:104029007C007D64121460EE3395E0FDFC90065D22
:10403900E0F8A3E0F9A3E0FAA3E0FBD312170340E9
:1040490011D2C4E49005CCF090065D12185300001B
:104059000000900875E0C4F8540FC868FF90087410
:10406900E0C454F048FE74DF2FF974043EFA900757
:104079004F7401F0A3EAF0A3E9F09008D2E0FCA3A1
:10408900E0FDA3E0FEA3E0FF121200900752121810
:1040990047900756121853000000007B017A0579F2
:1040A9006F12658C900631121847E4FFFE7D207C63
:1040B900419008BDE0F8A3E0F9A3E0FAA3E0FB1200
:1040C900114460025023E4FFFE7D207C419008C921
:1040D900E0F8A3E0F9A3E0FAA3E0FB1211446002BF
:1040E9005007E4900876F080069008767401F0E4B1
:1040F9007F207E4EFDFC900649E0F8A3E0F9A3E09D
:10410900FAA3E0FBD31217034008A2C4E4339008D2
:104119006FF09008DBE06003023C9512008E023CD0
:014129009500
:10272C0044059B000000004405CE00000000440658
:10273C005D00000000440649000000004405A300B1
:10274C0000000044059300000000440661000000F6
:10275C00004405970000000044059F000000004461
:10276C00060E000000004406590000000044063D1F
:10277C0000000000440631000000004406414348BC
:10278C0000004406454448000041063C004105BF9A
:05279C00004105CC0026
:10412A009005CDE0700302440FE4F07B0190076D27
:10413A0004F0A37406F0A37435F07A06792A127093
:10414A00521237D59005BFE0605290059BE0FCA360
:10415A00E0FDA3E0FEA3E0FFEC1211C29005E6E049
:10416A00F8A3E0F9A3E0FAA3E0FB120EAD121200E5
:10417A0090059B12184790059BE0FCA3E0FDA3E085
:10418A00FEA3E0FFEC1211C27B207A2A790D783B5C
:10419A00120F9E1212009005CE12184790059FE04A
:1041AA00F8A3E0F9A3E0FAA3E0FBC000C001C00253
:1041BA00C0039007357401F0A37404F0A374BFF030
:1041CA00E4FFFE7D207C419005E2E0F8A3E0F9A33C
:1041DA00E0FAA3E0FB120F9E1212009007381218A1
:1041EA00479005D6E0FCA3E0FDA3E0FEA3E0FF9024
:1041FA00073C1218477B017A05794F1263F8D003FE
:10420A00D002D001D000EB2FFFEA3EFEE93DFDE8E7
:10421A003CFC90059F12184790073E121853FFFF67
:10422A00FC4A900742121853000003B690059F12E9
:10423A008E6090059F1218479008AAE07003024208
:10424A00CE9007357401F0A37405F0A3743FF0E42F
:10425A00FFFE7DC87C429005E6E0F8A3E0F9A3E002
:10426A00FAA3E0FB120F9E121200900738121847A9
:10427A00900661E0FCA3E0FDA3E0FEA3E0FF900648
:10428A0031E0F8A3E0F9A3E0FAA3E0FB1215D89015
:10429A00073C1218477B017A0479AF12552690061B
:1042AA005912184790073E121853FFFFFB50900708
:1042BA0042121853000004B0900659128E609006FC
:1042CA0059121847900659E0FCA3E0FDA3E0FEA3AB
:1042DA00E0FFEC1211C27BCD7ACC794C783F120FF9
:1042EA009EC004C005C006C00790063DE0FCA3E0DE
:1042FA00FDA3E0FEA3E0FFEC1211C27BCD7ACC79DC
:10430A004C783E120F9ED003D002D001D000120E7C
:10431A00AD12120090063D12184790063DE0F8A330
:10432A00E0F9A3E0FAA3E0FB90059FE0FCA3E0FD1F
:10433A00A3E0FEA3E0C39BFFEE9AFEED99FDEC9885
:10434A00FC90087012184790063DE0FCA3E0FDA31C
:10435A00E0FEA3E0FF90059FE0F8A3E0F9A3E0FAEE
:10436A00A3E02FFFEA3EFEE93DFDE83CFC9008A3EE
:10437A00121847900876E0607490086FE060249005
